{
	"contracts/FundMe.sol": {
		"FundMe": {
			"abi": [
				{
					"inputs": [],
					"stateMutability": "nonpayable",
					"type": "constructor"
				},
				{
					"inputs": [
						{
							"internalType": "address",
							"name": "",
							"type": "address"
						}
					],
					"name": "addressToAmountFunded",
					"outputs": [
						{
							"internalType": "uint256",
							"name": "",
							"type": "uint256"
						}
					],
					"stateMutability": "view",
					"type": "function"
				},
				{
					"inputs": [],
					"name": "fund",
					"outputs": [],
					"stateMutability": "payable",
					"type": "function"
				},
				{
					"inputs": [
						{
							"internalType": "uint256",
							"name": "",
							"type": "uint256"
						}
					],
					"name": "funders",
					"outputs": [
						{
							"internalType": "address",
							"name": "",
							"type": "address"
						}
					],
					"stateMutability": "view",
					"type": "function"
				},
				{
					"inputs": [],
					"name": "getPrice",
					"outputs": [
						{
							"internalType": "uint256",
							"name": "",
							"type": "uint256"
						}
					],
					"stateMutability": "view",
					"type": "function"
				},
				{
					"inputs": [],
					"name": "getVersion",
					"outputs": [
						{
							"internalType": "uint256",
							"name": "",
							"type": "uint256"
						}
					],
					"stateMutability": "view",
					"type": "function"
				},
				{
					"inputs": [],
					"name": "minimumUsd",
					"outputs": [
						{
							"internalType": "uint256",
							"name": "",
							"type": "uint256"
						}
					],
					"stateMutability": "view",
					"type": "function"
				},
				{
					"inputs": [],
					"name": "owner",
					"outputs": [
						{
							"internalType": "address",
							"name": "",
							"type": "address"
						}
					],
					"stateMutability": "view",
					"type": "function"
				},
				{
					"inputs": [],
					"name": "withdraw",
					"outputs": [],
					"stateMutability": "nonpayable",
					"type": "function"
				}
			],
			"devdoc": {
				"kind": "dev",
				"methods": {},
				"version": 1
			},
			"evm": {
				"assembly": "    /* \"contracts/FundMe.sol\":252:2362  contract FundMe {... */\n  mstore(0x40, 0x80)\n    /* \"contracts/FundMe.sol\":434:443  50 * 1e18 */\n  0x02b5e3af16b1880000\n    /* \"contracts/FundMe.sol\":406:443  uint256 public minimumUsd = 50 * 1e18 */\n  0x02\n  sstore\n    /* \"contracts/FundMe.sol\":477:523  constructor(){... */\n  callvalue\n  dup1\n  iszero\n  tag_1\n  jumpi\n  0x00\n  dup1\n  revert\ntag_1:\n  pop\n    /* \"contracts/FundMe.sol\":506:516  msg.sender */\n  caller\n    /* \"contracts/FundMe.sol\":500:505  owner */\n  0x03\n  0x00\n    /* \"contracts/FundMe.sol\":500:516  owner=msg.sender */\n  0x0100\n  exp\n  dup2\n  sload\n  dup2\n  0xffffffffffffffffffffffffffffffffffffffff\n  mul\n  not\n  and\n  swap1\n  dup4\n  0xffffffffffffffffffffffffffffffffffffffff\n  and\n  mul\n  or\n  swap1\n  sstore\n  pop\n    /* \"contracts/FundMe.sol\":252:2362  contract FundMe {... */\n  dataSize(sub_0)\n  dup1\n  dataOffset(sub_0)\n  0x00\n  codecopy\n  0x00\n  return\nstop\n\nsub_0: assembly {\n        /* \"contracts/FundMe.sol\":252:2362  contract FundMe {... */\n      mstore(0x40, 0x80)\n      jumpi(tag_1, lt(calldatasize, 0x04))\n      shr(0xe0, calldataload(0x00))\n      dup1\n      0x8da5cb5b\n      gt\n      tag_10\n      jumpi\n      dup1\n      0x8da5cb5b\n      eq\n      tag_6\n      jumpi\n      dup1\n      0x98d5fdca\n      eq\n      tag_7\n      jumpi\n      dup1\n      0xb60d4288\n      eq\n      tag_8\n      jumpi\n      dup1\n      0xdc0d3dff\n      eq\n      tag_9\n      jumpi\n      jump(tag_1)\n    tag_10:\n      dup1\n      0x098de820\n      eq\n      tag_2\n      jumpi\n      dup1\n      0x0d8e6e2c\n      eq\n      tag_3\n      jumpi\n      dup1\n      0x3ccfd60b\n      eq\n      tag_4\n      jumpi\n      dup1\n      0x3e47d6f3\n      eq\n      tag_5\n      jumpi\n    tag_1:\n      0x00\n      dup1\n      revert\n        /* \"contracts/FundMe.sol\":406:443  uint256 public minimumUsd = 50 * 1e18 */\n    tag_2:\n      callvalue\n      dup1\n      iszero\n      tag_11\n      jumpi\n      0x00\n      dup1\n      revert\n    tag_11:\n      pop\n      tag_12\n      tag_13\n      jump\t// in\n    tag_12:\n      mload(0x40)\n      tag_14\n      swap2\n      swap1\n      tag_15\n      jump\t// in\n    tag_14:\n      mload(0x40)\n      dup1\n      swap2\n      sub\n      swap1\n      return\n        /* \"contracts/FundMe.sol\":1625:1893  function getVersion() public view returns (uint256) {... */\n    tag_3:\n      callvalue\n      dup1\n      iszero\n      tag_16\n      jumpi\n      0x00\n      dup1\n      revert\n    tag_16:\n      pop\n      tag_17\n      tag_18\n      jump\t// in\n    tag_17:\n      mload(0x40)\n      tag_19\n      swap2\n      swap1\n      tag_15\n      jump\t// in\n    tag_19:\n      mload(0x40)\n      dup1\n      swap2\n      sub\n      swap1\n      return\n        /* \"contracts/FundMe.sol\":781:1619  function withdraw() public onlyOwner {... */\n    tag_4:\n      callvalue\n      dup1\n      iszero\n      tag_20\n      jumpi\n      0x00\n      dup1\n      revert\n    tag_20:\n      pop\n      tag_21\n      tag_22\n      jump\t// in\n    tag_21:\n      stop\n        /* \"contracts/FundMe.sol\":343:399  mapping(address => uint256) public addressToAmountFunded */\n    tag_5:\n      callvalue\n      dup1\n      iszero\n      tag_23\n      jumpi\n      0x00\n      dup1\n      revert\n    tag_23:\n      pop\n      tag_24\n      0x04\n      dup1\n      calldatasize\n      sub\n      dup2\n      add\n      swap1\n      tag_25\n      swap2\n      swap1\n      tag_26\n      jump\t// in\n    tag_25:\n      tag_27\n      jump\t// in\n    tag_24:\n      mload(0x40)\n      tag_28\n      swap2\n      swap1\n      tag_15\n      jump\t// in\n    tag_28:\n      mload(0x40)\n      dup1\n      swap2\n      sub\n      swap1\n      return\n        /* \"contracts/FundMe.sol\":450:470  address public owner */\n    tag_6:\n      callvalue\n      dup1\n      iszero\n      tag_29\n      jumpi\n      0x00\n      dup1\n      revert\n    tag_29:\n      pop\n      tag_30\n      tag_31\n      jump\t// in\n    tag_30:\n      mload(0x40)\n      tag_32\n      swap2\n      swap1\n      tag_33\n      jump\t// in\n    tag_32:\n      mload(0x40)\n      dup1\n      swap2\n      sub\n      swap1\n      return\n        /* \"contracts/FundMe.sol\":1899:2229  function getPrice() public view returns (uint256) {... */\n    tag_7:\n      callvalue\n      dup1\n      iszero\n      tag_34\n      jumpi\n      0x00\n      dup1\n      revert\n    tag_34:\n      pop\n      tag_35\n      tag_36\n      jump\t// in\n    tag_35:\n      mload(0x40)\n      tag_37\n      swap2\n      swap1\n      tag_15\n      jump\t// in\n    tag_37:\n      mload(0x40)\n      dup1\n      swap2\n      sub\n      swap1\n      return\n        /* \"contracts/FundMe.sol\":529:775  function fund() public payable {... */\n    tag_8:\n      tag_38\n      tag_39\n      jump\t// in\n    tag_38:\n      stop\n        /* \"contracts/FundMe.sol\":313:337  address[] public funders */\n    tag_9:\n      callvalue\n      dup1\n      iszero\n      tag_40\n      jumpi\n      0x00\n      dup1\n      revert\n    tag_40:\n      pop\n      tag_41\n      0x04\n      dup1\n      calldatasize\n      sub\n      dup2\n      add\n      swap1\n      tag_42\n      swap2\n      swap1\n      tag_43\n      jump\t// in\n    tag_42:\n      tag_44\n      jump\t// in\n    tag_41:\n      mload(0x40)\n      tag_45\n      swap2\n      swap1\n      tag_33\n      jump\t// in\n    tag_45:\n      mload(0x40)\n      dup1\n      swap2\n      sub\n      swap1\n      return\n        /* \"contracts/FundMe.sol\":406:443  uint256 public minimumUsd = 50 * 1e18 */\n    tag_13:\n      sload(0x02)\n      dup2\n      jump\t// out\n        /* \"contracts/FundMe.sol\":1625:1893  function getVersion() public view returns (uint256) {... */\n    tag_18:\n        /* \"contracts/FundMe.sol\":1668:1675  uint256 */\n      0x00\n        /* \"contracts/FundMe.sol\":1729:1760  AggregatorV3Interface priceFeed */\n      dup1\n        /* \"contracts/FundMe.sol\":1798:1840  0x694AA1769357215DE4FAC081bf1f309aDC325306 */\n      0x694aa1769357215de4fac081bf1f309adc325306\n        /* \"contracts/FundMe.sol\":1729:1850  AggregatorV3Interface priceFeed = AggregatorV3Interface(... */\n      swap1\n      pop\n        /* \"contracts/FundMe.sol\":1867:1876  priceFeed */\n      dup1\n        /* \"contracts/FundMe.sol\":1867:1884  priceFeed.version */\n      0xffffffffffffffffffffffffffffffffffffffff\n      and\n      0x54fd4d50\n        /* \"contracts/FundMe.sol\":1867:1886  priceFeed.version() */\n      mload(0x40)\n      dup2\n      0xffffffff\n      and\n      0xe0\n      shl\n      dup2\n      mstore\n      0x04\n      add\n      0x20\n      mload(0x40)\n      dup1\n      dup4\n      sub\n      dup2\n      dup7\n      dup1\n      extcodesize\n      iszero\n      dup1\n      iszero\n      tag_47\n      jumpi\n      0x00\n      dup1\n      revert\n    tag_47:\n      pop\n      gas\n      staticcall\n      iszero\n      dup1\n      iszero\n      tag_49\n      jumpi\n      returndatasize\n      0x00\n      dup1\n      returndatacopy\n      revert(0x00, returndatasize)\n    tag_49:\n      pop\n      pop\n      pop\n      pop\n      mload(0x40)\n      returndatasize\n      not(0x1f)\n      0x1f\n      dup3\n      add\n      and\n      dup3\n      add\n      dup1\n      0x40\n      mstore\n      pop\n      dup2\n      add\n      swap1\n      tag_50\n      swap2\n      swap1\n      tag_51\n      jump\t// in\n    tag_50:\n        /* \"contracts/FundMe.sol\":1860:1886  return priceFeed.version() */\n      swap2\n      pop\n      pop\n        /* \"contracts/FundMe.sol\":1625:1893  function getVersion() public view returns (uint256) {... */\n      swap1\n      jump\t// out\n        /* \"contracts/FundMe.sol\":781:1619  function withdraw() public onlyOwner {... */\n    tag_22:\n        /* \"contracts/FundMe.sol\":2284:2289  owner */\n      0x03\n      0x00\n      swap1\n      sload\n      swap1\n      0x0100\n      exp\n      swap1\n      div\n      0xffffffffffffffffffffffffffffffffffffffff\n      and\n        /* \"contracts/FundMe.sol\":2270:2289  msg.sender == owner */\n      0xffffffffffffffffffffffffffffffffffffffff\n      and\n        /* \"contracts/FundMe.sol\":2270:2280  msg.sender */\n      caller\n        /* \"contracts/FundMe.sol\":2270:2289  msg.sender == owner */\n      0xffffffffffffffffffffffffffffffffffffffff\n      and\n      eq\n        /* \"contracts/FundMe.sol\":2262:2313  require(msg.sender == owner,\"Sender is not owner!\") */\n      tag_53\n      jumpi\n      mload(0x40)\n      0x08c379a000000000000000000000000000000000000000000000000000000000\n      dup2\n      mstore\n      0x04\n      add\n      tag_54\n      swap1\n      tag_55\n      jump\t// in\n    tag_54:\n      mload(0x40)\n      dup1\n      swap2\n      sub\n      swap1\n      revert\n    tag_53:\n        /* \"contracts/FundMe.sol\":949:968  uint256 funderIndex */\n      0x00\n        /* \"contracts/FundMe.sol\":945:1137  for(uint256 funderIndex=0;funderIndex< funders.length;funderIndex++){... */\n    tag_57:\n        /* \"contracts/FundMe.sol\":984:991  funders */\n      0x00\n        /* \"contracts/FundMe.sol\":984:998  funders.length */\n      dup1\n      sload\n      swap1\n      pop\n        /* \"contracts/FundMe.sol\":971:982  funderIndex */\n      dup2\n        /* \"contracts/FundMe.sol\":971:998  funderIndex< funders.length */\n      lt\n        /* \"contracts/FundMe.sol\":945:1137  for(uint256 funderIndex=0;funderIndex< funders.length;funderIndex++){... */\n      iszero\n      tag_58\n      jumpi\n        /* \"contracts/FundMe.sol\":1046:1060  address funder */\n      0x00\n        /* \"contracts/FundMe.sol\":1061:1068  funders */\n      dup1\n        /* \"contracts/FundMe.sol\":1069:1080  funderIndex */\n      dup3\n        /* \"contracts/FundMe.sol\":1061:1081  funders[funderIndex] */\n      dup2\n      sload\n      dup2\n      lt\n      tag_60\n      jumpi\n      tag_61\n      tag_62\n      jump\t// in\n    tag_61:\n    tag_60:\n      swap1\n      0x00\n      mstore\n      keccak256(0x00, 0x20)\n      add\n      0x00\n      swap1\n      sload\n      swap1\n      0x0100\n      exp\n      swap1\n      div\n      0xffffffffffffffffffffffffffffffffffffffff\n      and\n        /* \"contracts/FundMe.sol\":1046:1081  address funder=funders[funderIndex] */\n      swap1\n      pop\n        /* \"contracts/FundMe.sol\":1125:1126  0 */\n      0x00\n        /* \"contracts/FundMe.sol\":1095:1116  addressToAmountFunded */\n      0x01\n        /* \"contracts/FundMe.sol\":1095:1124  addressToAmountFunded[funder] */\n      0x00\n        /* \"contracts/FundMe.sol\":1117:1123  funder */\n      dup4\n        /* \"contracts/FundMe.sol\":1095:1124  addressToAmountFunded[funder] */\n      0xffffffffffffffffffffffffffffffffffffffff\n      and\n      0xffffffffffffffffffffffffffffffffffffffff\n      and\n      dup2\n      mstore\n      0x20\n      add\n      swap1\n      dup2\n      mstore\n      0x20\n      add\n      0x00\n      keccak256\n        /* \"contracts/FundMe.sol\":1095:1126  addressToAmountFunded[funder]=0 */\n      dup2\n      swap1\n      sstore\n      pop\n        /* \"contracts/FundMe.sol\":1013:1137  {... */\n      pop\n        /* \"contracts/FundMe.sol\":999:1012  funderIndex++ */\n      dup1\n      dup1\n      tag_64\n      swap1\n      tag_65\n      jump\t// in\n    tag_64:\n      swap2\n      pop\n      pop\n        /* \"contracts/FundMe.sol\":945:1137  for(uint256 funderIndex=0;funderIndex< funders.length;funderIndex++){... */\n      jump(tag_57)\n    tag_58:\n      pop\n        /* \"contracts/FundMe.sol\":1194:1195  0 */\n      0x00\n        /* \"contracts/FundMe.sol\":1180:1196  new address[](0) */\n      0xffffffffffffffff\n      dup2\n      gt\n      iszero\n      tag_66\n      jumpi\n      tag_67\n      tag_68\n      jump\t// in\n    tag_67:\n    tag_66:\n      mload(0x40)\n      swap1\n      dup1\n      dup3\n      mstore\n      dup1\n      0x20\n      mul\n      0x20\n      add\n      dup3\n      add\n      0x40\n      mstore\n      dup1\n      iszero\n      tag_69\n      jumpi\n      dup2\n      0x20\n      add\n      0x20\n      dup3\n      mul\n      dup1\n      calldatasize\n      dup4\n      calldatacopy\n      dup1\n      dup3\n      add\n      swap2\n      pop\n      pop\n      swap1\n      pop\n    tag_69:\n      pop\n        /* \"contracts/FundMe.sol\":1172:1179  funders */\n      0x00\n        /* \"contracts/FundMe.sol\":1172:1196  funders=new address[](0) */\n      swap1\n      dup1\n      mload\n      swap1\n      0x20\n      add\n      swap1\n      tag_70\n      swap3\n      swap2\n      swap1\n      tag_71\n      jump\t// in\n    tag_70:\n      pop\n        /* \"contracts/FundMe.sol\":1492:1508  bool callSuccess */\n      0x00\n        /* \"contracts/FundMe.sol\":1520:1530  msg.sender */\n      caller\n        /* \"contracts/FundMe.sol\":1512:1536  payable(msg.sender).call */\n      0xffffffffffffffffffffffffffffffffffffffff\n      and\n        /* \"contracts/FundMe.sol\":1543:1564  address(this).balance */\n      selfbalance\n        /* \"contracts/FundMe.sol\":1512:1569  payable(msg.sender).call{value:address(this).balance}(\"\") */\n      mload(0x40)\n      tag_72\n      swap1\n      tag_73\n      jump\t// in\n    tag_72:\n      0x00\n      mload(0x40)\n      dup1\n      dup4\n      sub\n      dup2\n      dup6\n      dup8\n      gas\n      call\n      swap3\n      pop\n      pop\n      pop\n      returndatasize\n      dup1\n      0x00\n      dup2\n      eq\n      tag_76\n      jumpi\n      mload(0x40)\n      swap2\n      pop\n      and(add(returndatasize, 0x3f), not(0x1f))\n      dup3\n      add\n      0x40\n      mstore\n      returndatasize\n      dup3\n      mstore\n      returndatasize\n      0x00\n      0x20\n      dup5\n      add\n      returndatacopy\n      jump(tag_75)\n    tag_76:\n      0x60\n      swap2\n      pop\n    tag_75:\n      pop\n        /* \"contracts/FundMe.sol\":1491:1569  (bool callSuccess,)= payable(msg.sender).call{value:address(this).balance}(\"\") */\n      pop\n      swap1\n      pop\n        /* \"contracts/FundMe.sol\":1586:1597  callSuccess */\n      dup1\n        /* \"contracts/FundMe.sol\":1578:1612  require(callSuccess,\"call failed\") */\n      tag_77\n      jumpi\n      mload(0x40)\n      0x08c379a000000000000000000000000000000000000000000000000000000000\n      dup2\n      mstore\n      0x04\n      add\n      tag_78\n      swap1\n      tag_79\n      jump\t// in\n    tag_78:\n      mload(0x40)\n      dup1\n      swap2\n      sub\n      swap1\n      revert\n    tag_77:\n        /* \"contracts/FundMe.sol\":818:1619  {... */\n      pop\n        /* \"contracts/FundMe.sol\":781:1619  function withdraw() public onlyOwner {... */\n      jump\t// out\n        /* \"contracts/FundMe.sol\":343:399  mapping(address => uint256) public addressToAmountFunded */\n    tag_27:\n      mstore(0x20, 0x01)\n      dup1\n      0x00\n      mstore\n      keccak256(0x00, 0x40)\n      0x00\n      swap2\n      pop\n      swap1\n      pop\n      sload\n      dup2\n      jump\t// out\n        /* \"contracts/FundMe.sol\":450:470  address public owner */\n    tag_31:\n      0x03\n      0x00\n      swap1\n      sload\n      swap1\n      0x0100\n      exp\n      swap1\n      div\n      0xffffffffffffffffffffffffffffffffffffffff\n      and\n      dup2\n      jump\t// out\n        /* \"contracts/FundMe.sol\":1899:2229  function getPrice() public view returns (uint256) {... */\n    tag_36:\n        /* \"contracts/FundMe.sol\":1940:1947  uint256 */\n      0x00\n        /* \"contracts/FundMe.sol\":2001:2032  AggregatorV3Interface priceFeed */\n      dup1\n        /* \"contracts/FundMe.sol\":2070:2112  0x694AA1769357215DE4FAC081bf1f309aDC325306 */\n      0x694aa1769357215de4fac081bf1f309adc325306\n        /* \"contracts/FundMe.sol\":2001:2122  AggregatorV3Interface priceFeed = AggregatorV3Interface(... */\n      swap1\n      pop\n        /* \"contracts/FundMe.sol\":2135:2147  int256 price */\n      0x00\n        /* \"contracts/FundMe.sol\":2157:2166  priceFeed */\n      dup2\n        /* \"contracts/FundMe.sol\":2157:2182  priceFeed.latestRoundData */\n      0xffffffffffffffffffffffffffffffffffffffff\n      and\n      0xfeaf968c\n        /* \"contracts/FundMe.sol\":2157:2184  priceFeed.latestRoundData() */\n      mload(0x40)\n      dup2\n      0xffffffff\n      and\n      0xe0\n      shl\n      dup2\n      mstore\n      0x04\n      add\n      0xa0\n      mload(0x40)\n      dup1\n      dup4\n      sub\n      dup2\n      dup7\n      dup1\n      extcodesize\n      iszero\n      dup1\n      iszero\n      tag_81\n      jumpi\n      0x00\n      dup1\n      revert\n    tag_81:\n      pop\n      gas\n      staticcall\n      iszero\n      dup1\n      iszero\n      tag_83\n      jumpi\n      returndatasize\n      0x00\n      dup1\n      returndatacopy\n      revert(0x00, returndatasize)\n    tag_83:\n      pop\n      pop\n      pop\n      pop\n      mload(0x40)\n      returndatasize\n      not(0x1f)\n      0x1f\n      dup3\n      add\n      and\n      dup3\n      add\n      dup1\n      0x40\n      mstore\n      pop\n      dup2\n      add\n      swap1\n      tag_84\n      swap2\n      swap1\n      tag_85\n      jump\t// in\n    tag_84:\n        /* \"contracts/FundMe.sol\":2132:2184  (, int256 price, , , ) = priceFeed.latestRoundData() */\n      pop\n      pop\n      pop\n      swap2\n      pop\n      pop\n        /* \"contracts/FundMe.sol\":2217:2221  1e10 */\n      0x02540be400\n        /* \"contracts/FundMe.sol\":2209:2214  price */\n      dup2\n        /* \"contracts/FundMe.sol\":2209:2221  price * 1e10 */\n      tag_86\n      swap2\n      swap1\n      tag_87\n      jump\t// in\n    tag_86:\n        /* \"contracts/FundMe.sol\":2194:2222  return uint256(price * 1e10) */\n      swap3\n      pop\n      pop\n      pop\n        /* \"contracts/FundMe.sol\":1899:2229  function getPrice() public view returns (uint256) {... */\n      swap1\n      jump\t// out\n        /* \"contracts/FundMe.sol\":529:775  function fund() public payable {... */\n    tag_39:\n        /* \"contracts/FundMe.sol\":624:634  minimumUsd */\n      sload(0x02)\n        /* \"contracts/FundMe.sol\":591:620  msg.value.getConversionRate() */\n      tag_89\n        /* \"contracts/FundMe.sol\":591:600  msg.value */\n      callvalue\n        /* \"contracts/FundMe.sol\":591:618  msg.value.getConversionRate */\n      tag_90\n        /* \"contracts/FundMe.sol\":591:620  msg.value.getConversionRate() */\n      jump\t// in\n    tag_89:\n        /* \"contracts/FundMe.sol\":591:634  msg.value.getConversionRate() >= minimumUsd */\n      lt\n      iszero\n        /* \"contracts/FundMe.sol\":570:679  require(... */\n      tag_91\n      jumpi\n      mload(0x40)\n      0x08c379a000000000000000000000000000000000000000000000000000000000\n      dup2\n      mstore\n      0x04\n      add\n      tag_92\n      swap1\n      tag_93\n      jump\t// in\n    tag_92:\n      mload(0x40)\n      dup1\n      swap2\n      sub\n      swap1\n      revert\n    tag_91:\n        /* \"contracts/FundMe.sol\":689:696  funders */\n      0x00\n        /* \"contracts/FundMe.sol\":702:712  msg.sender */\n      caller\n        /* \"contracts/FundMe.sol\":689:713  funders.push(msg.sender) */\n      swap1\n      dup1\n      0x01\n      dup2\n      sload\n      add\n      dup1\n      dup3\n      sstore\n      dup1\n      swap2\n      pop\n      pop\n      0x01\n      swap1\n      sub\n      swap1\n      0x00\n      mstore\n      keccak256(0x00, 0x20)\n      add\n      0x00\n      swap1\n      swap2\n      swap1\n      swap2\n      swap1\n      swap2\n      0x0100\n      exp\n      dup2\n      sload\n      dup2\n      0xffffffffffffffffffffffffffffffffffffffff\n      mul\n      not\n      and\n      swap1\n      dup4\n      0xffffffffffffffffffffffffffffffffffffffff\n      and\n      mul\n      or\n      swap1\n      sstore\n      pop\n        /* \"contracts/FundMe.sol\":759:768  msg.value */\n      callvalue\n        /* \"contracts/FundMe.sol\":723:744  addressToAmountFunded */\n      0x01\n        /* \"contracts/FundMe.sol\":723:756  addressToAmountFunded[msg.sender] */\n      0x00\n        /* \"contracts/FundMe.sol\":745:755  msg.sender */\n      caller\n        /* \"contracts/FundMe.sol\":723:756  addressToAmountFunded[msg.sender] */\n      0xffffffffffffffffffffffffffffffffffffffff\n      and\n      0xffffffffffffffffffffffffffffffffffffffff\n      and\n      dup2\n      mstore\n      0x20\n      add\n      swap1\n      dup2\n      mstore\n      0x20\n      add\n      0x00\n      keccak256\n        /* \"contracts/FundMe.sol\":723:768  addressToAmountFunded[msg.sender] = msg.value */\n      dup2\n      swap1\n      sstore\n      pop\n        /* \"contracts/FundMe.sol\":529:775  function fund() public payable {... */\n      jump\t// out\n        /* \"contracts/FundMe.sol\":313:337  address[] public funders */\n    tag_44:\n      0x00\n      dup2\n      dup2\n      sload\n      dup2\n      lt\n      tag_95\n      jumpi\n      0x00\n      dup1\n      revert\n    tag_95:\n      swap1\n      0x00\n      mstore\n      keccak256(0x00, 0x20)\n      add\n      0x00\n      swap2\n      pop\n      sload\n      swap1\n      0x0100\n      exp\n      swap1\n      div\n      0xffffffffffffffffffffffffffffffffffffffff\n      and\n      dup2\n      jump\t// out\n        /* \"contracts/PriceConverter.sol\":783:996  function getConversionRate(uint256 ethAmount) internal view returns (uint256){... */\n    tag_90:\n        /* \"contracts/PriceConverter.sol\":852:859  uint256 */\n      0x00\n        /* \"contracts/PriceConverter.sol\":870:886  uint256 ethPrice */\n      dup1\n        /* \"contracts/PriceConverter.sol\":888:898  getPrice() */\n      tag_98\n        /* \"contracts/PriceConverter.sol\":888:896  getPrice */\n      tag_99\n        /* \"contracts/PriceConverter.sol\":888:898  getPrice() */\n      jump\t// in\n    tag_98:\n        /* \"contracts/PriceConverter.sol\":870:898  uint256 ethPrice= getPrice() */\n      swap1\n      pop\n        /* \"contracts/PriceConverter.sol\":908:930  uint256 ethAmountInUsd */\n      0x00\n        /* \"contracts/PriceConverter.sol\":954:958  1e18 */\n      0x0de0b6b3a7640000\n        /* \"contracts/PriceConverter.sol\":943:952  ethAmount */\n      dup5\n        /* \"contracts/PriceConverter.sol\":932:940  ethPrice */\n      dup4\n        /* \"contracts/PriceConverter.sol\":932:952  ethPrice * ethAmount */\n      tag_100\n      swap2\n      swap1\n      tag_101\n      jump\t// in\n    tag_100:\n        /* \"contracts/PriceConverter.sol\":931:958  (ethPrice * ethAmount)/1e18 */\n      tag_102\n      swap2\n      swap1\n      tag_103\n      jump\t// in\n    tag_102:\n        /* \"contracts/PriceConverter.sol\":908:958  uint256 ethAmountInUsd=(ethPrice * ethAmount)/1e18 */\n      swap1\n      pop\n        /* \"contracts/PriceConverter.sol\":975:989  ethAmountInUsd */\n      dup1\n        /* \"contracts/PriceConverter.sol\":968:989  return ethAmountInUsd */\n      swap3\n      pop\n      pop\n      pop\n        /* \"contracts/PriceConverter.sol\":783:996  function getConversionRate(uint256 ethAmount) internal view returns (uint256){... */\n      swap2\n      swap1\n      pop\n      jump\t// out\n        /* \"contracts/PriceConverter.sol\":171:502  function getPrice() internal view returns (uint256) {... */\n    tag_99:\n        /* \"contracts/PriceConverter.sol\":214:221  uint256 */\n      0x00\n        /* \"contracts/PriceConverter.sol\":274:305  AggregatorV3Interface priceFeed */\n      dup1\n        /* \"contracts/PriceConverter.sol\":343:385  0x694AA1769357215DE4FAC081bf1f309aDC325306 */\n      0x694aa1769357215de4fac081bf1f309adc325306\n        /* \"contracts/PriceConverter.sol\":274:395  AggregatorV3Interface priceFeed = AggregatorV3Interface(... */\n      swap1\n      pop\n        /* \"contracts/PriceConverter.sol\":408:420  int256 price */\n      0x00\n        /* \"contracts/PriceConverter.sol\":430:439  priceFeed */\n      dup2\n        /* \"contracts/PriceConverter.sol\":430:455  priceFeed.latestRoundData */\n      0xffffffffffffffffffffffffffffffffffffffff\n      and\n      0xfeaf968c\n        /* \"contracts/PriceConverter.sol\":430:457  priceFeed.latestRoundData() */\n      mload(0x40)\n      dup2\n      0xffffffff\n      and\n      0xe0\n      shl\n      dup2\n      mstore\n      0x04\n      add\n      0xa0\n      mload(0x40)\n      dup1\n      dup4\n      sub\n      dup2\n      dup7\n      dup1\n      extcodesize\n      iszero\n      dup1\n      iszero\n      tag_105\n      jumpi\n      0x00\n      dup1\n      revert\n    tag_105:\n      pop\n      gas\n      staticcall\n      iszero\n      dup1\n      iszero\n      tag_107\n      jumpi\n      returndatasize\n      0x00\n      dup1\n      returndatacopy\n      revert(0x00, returndatasize)\n    tag_107:\n      pop\n      pop\n      pop\n      pop\n      mload(0x40)\n      returndatasize\n      not(0x1f)\n      0x1f\n      dup3\n      add\n      and\n      dup3\n      add\n      dup1\n      0x40\n      mstore\n      pop\n      dup2\n      add\n      swap1\n      tag_108\n      swap2\n      swap1\n      tag_85\n      jump\t// in\n    tag_108:\n        /* \"contracts/PriceConverter.sol\":405:457  (, int256 price, , , ) = priceFeed.latestRoundData() */\n      pop\n      pop\n      pop\n      swap2\n      pop\n      pop\n        /* \"contracts/PriceConverter.sol\":490:494  1e10 */\n      0x02540be400\n        /* \"contracts/PriceConverter.sol\":482:487  price */\n      dup2\n        /* \"contracts/PriceConverter.sol\":482:494  price * 1e10 */\n      tag_109\n      swap2\n      swap1\n      tag_87\n      jump\t// in\n    tag_109:\n        /* \"contracts/PriceConverter.sol\":467:495  return uint256(price * 1e10) */\n      swap3\n      pop\n      pop\n      pop\n        /* \"contracts/PriceConverter.sol\":171:502  function getPrice() internal view returns (uint256) {... */\n      swap1\n      jump\t// out\n    tag_71:\n      dup3\n      dup1\n      sload\n      dup3\n      dup3\n      sstore\n      swap1\n      0x00\n      mstore\n      keccak256(0x00, 0x20)\n      swap1\n      dup2\n      add\n      swap3\n      dup3\n      iszero\n      tag_110\n      jumpi\n      swap2\n      0x20\n      mul\n      dup3\n      add\n    tag_111:\n      dup3\n      dup2\n      gt\n      iszero\n      tag_112\n      jumpi\n      dup3\n      mload\n      dup3\n      exp(0x0100, 0x00)\n      dup2\n      sload\n      dup2\n      0xffffffffffffffffffffffffffffffffffffffff\n      mul\n      not\n      and\n      swap1\n      dup4\n      0xffffffffffffffffffffffffffffffffffffffff\n      and\n      mul\n      or\n      swap1\n      sstore\n      pop\n      swap2\n      0x20\n      add\n      swap2\n      swap1\n      0x01\n      add\n      swap1\n      jump(tag_111)\n    tag_112:\n    tag_110:\n      pop\n      swap1\n      pop\n      tag_113\n      swap2\n      swap1\n      tag_114\n      jump\t// in\n    tag_113:\n      pop\n      swap1\n      jump\t// out\n    tag_114:\n    tag_115:\n      dup1\n      dup3\n      gt\n      iszero\n      tag_116\n      jumpi\n      0x00\n      dup2\n      0x00\n      swap1\n      sstore\n      pop\n      0x01\n      add\n      jump(tag_115)\n    tag_116:\n      pop\n      swap1\n      jump\t// out\n        /* \"#utility.yul\":7:146   */\n    tag_118:\n        /* \"#utility.yul\":53:58   */\n      0x00\n        /* \"#utility.yul\":91:97   */\n      dup2\n        /* \"#utility.yul\":78:98   */\n      calldataload\n        /* \"#utility.yul\":69:98   */\n      swap1\n      pop\n        /* \"#utility.yul\":107:140   */\n      tag_120\n        /* \"#utility.yul\":134:139   */\n      dup2\n        /* \"#utility.yul\":107:140   */\n      tag_121\n      jump\t// in\n    tag_120:\n        /* \"#utility.yul\":7:146   */\n      swap3\n      swap2\n      pop\n      pop\n      jump\t// out\n        /* \"#utility.yul\":152:293   */\n    tag_122:\n        /* \"#utility.yul\":208:213   */\n      0x00\n        /* \"#utility.yul\":239:245   */\n      dup2\n        /* \"#utility.yul\":233:246   */\n      mload\n        /* \"#utility.yul\":224:246   */\n      swap1\n      pop\n        /* \"#utility.yul\":255:287   */\n      tag_124\n        /* \"#utility.yul\":281:286   */\n      dup2\n        /* \"#utility.yul\":255:287   */\n      tag_125\n      jump\t// in\n    tag_124:\n        /* \"#utility.yul\":152:293   */\n      swap3\n      swap2\n      pop\n      pop\n      jump\t// out\n        /* \"#utility.yul\":299:438   */\n    tag_126:\n        /* \"#utility.yul\":345:350   */\n      0x00\n        /* \"#utility.yul\":383:389   */\n      dup2\n        /* \"#utility.yul\":370:390   */\n      calldataload\n        /* \"#utility.yul\":361:390   */\n      swap1\n      pop\n        /* \"#utility.yul\":399:432   */\n      tag_128\n        /* \"#utility.yul\":426:431   */\n      dup2\n        /* \"#utility.yul\":399:432   */\n      tag_129\n      jump\t// in\n    tag_128:\n        /* \"#utility.yul\":299:438   */\n      swap3\n      swap2\n      pop\n      pop\n      jump\t// out\n        /* \"#utility.yul\":444:587   */\n    tag_130:\n        /* \"#utility.yul\":501:506   */\n      0x00\n        /* \"#utility.yul\":532:538   */\n      dup2\n        /* \"#utility.yul\":526:539   */\n      mload\n        /* \"#utility.yul\":517:539   */\n      swap1\n      pop\n        /* \"#utility.yul\":548:581   */\n      tag_132\n        /* \"#utility.yul\":575:580   */\n      dup2\n        /* \"#utility.yul\":548:581   */\n      tag_129\n      jump\t// in\n    tag_132:\n        /* \"#utility.yul\":444:587   */\n      swap3\n      swap2\n      pop\n      pop\n      jump\t// out\n        /* \"#utility.yul\":593:734   */\n    tag_133:\n        /* \"#utility.yul\":649:654   */\n      0x00\n        /* \"#utility.yul\":680:686   */\n      dup2\n        /* \"#utility.yul\":674:687   */\n      mload\n        /* \"#utility.yul\":665:687   */\n      swap1\n      pop\n        /* \"#utility.yul\":696:728   */\n      tag_135\n        /* \"#utility.yul\":722:727   */\n      dup2\n        /* \"#utility.yul\":696:728   */\n      tag_136\n      jump\t// in\n    tag_135:\n        /* \"#utility.yul\":593:734   */\n      swap3\n      swap2\n      pop\n      pop\n      jump\t// out\n        /* \"#utility.yul\":740:1069   */\n    tag_26:\n        /* \"#utility.yul\":799:805   */\n      0x00\n        /* \"#utility.yul\":848:850   */\n      0x20\n        /* \"#utility.yul\":836:845   */\n      dup3\n        /* \"#utility.yul\":827:834   */\n      dup5\n        /* \"#utility.yul\":823:846   */\n      sub\n        /* \"#utility.yul\":819:851   */\n      slt\n        /* \"#utility.yul\":816:935   */\n      iszero\n      tag_138\n      jumpi\n        /* \"#utility.yul\":854:933   */\n      tag_139\n      tag_140\n      jump\t// in\n    tag_139:\n        /* \"#utility.yul\":816:935   */\n    tag_138:\n        /* \"#utility.yul\":974:975   */\n      0x00\n        /* \"#utility.yul\":999:1052   */\n      tag_141\n        /* \"#utility.yul\":1044:1051   */\n      dup5\n        /* \"#utility.yul\":1035:1041   */\n      dup3\n        /* \"#utility.yul\":1024:1033   */\n      dup6\n        /* \"#utility.yul\":1020:1042   */\n      add\n        /* \"#utility.yul\":999:1052   */\n      tag_118\n      jump\t// in\n    tag_141:\n        /* \"#utility.yul\":989:1052   */\n      swap2\n      pop\n        /* \"#utility.yul\":945:1062   */\n      pop\n        /* \"#utility.yul\":740:1069   */\n      swap3\n      swap2\n      pop\n      pop\n      jump\t// out\n        /* \"#utility.yul\":1075:1404   */\n    tag_43:\n        /* \"#utility.yul\":1134:1140   */\n      0x00\n        /* \"#utility.yul\":1183:1185   */\n      0x20\n        /* \"#utility.yul\":1171:1180   */\n      dup3\n        /* \"#utility.yul\":1162:1169   */\n      dup5\n        /* \"#utility.yul\":1158:1181   */\n      sub\n        /* \"#utility.yul\":1154:1186   */\n      slt\n        /* \"#utility.yul\":1151:1270   */\n      iszero\n      tag_143\n      jumpi\n        /* \"#utility.yul\":1189:1268   */\n      tag_144\n      tag_140\n      jump\t// in\n    tag_144:\n        /* \"#utility.yul\":1151:1270   */\n    tag_143:\n        /* \"#utility.yul\":1309:1310   */\n      0x00\n        /* \"#utility.yul\":1334:1387   */\n      tag_145\n        /* \"#utility.yul\":1379:1386   */\n      dup5\n        /* \"#utility.yul\":1370:1376   */\n      dup3\n        /* \"#utility.yul\":1359:1368   */\n      dup6\n        /* \"#utility.yul\":1355:1377   */\n      add\n        /* \"#utility.yul\":1334:1387   */\n      tag_126\n      jump\t// in\n    tag_145:\n        /* \"#utility.yul\":1324:1387   */\n      swap2\n      pop\n        /* \"#utility.yul\":1280:1397   */\n      pop\n        /* \"#utility.yul\":1075:1404   */\n      swap3\n      swap2\n      pop\n      pop\n      jump\t// out\n        /* \"#utility.yul\":1410:1761   */\n    tag_51:\n        /* \"#utility.yul\":1480:1486   */\n      0x00\n        /* \"#utility.yul\":1529:1531   */\n      0x20\n        /* \"#utility.yul\":1517:1526   */\n      dup3\n        /* \"#utility.yul\":1508:1515   */\n      dup5\n        /* \"#utility.yul\":1504:1527   */\n      sub\n        /* \"#utility.yul\":1500:1532   */\n      slt\n        /* \"#utility.yul\":1497:1616   */\n      iszero\n      tag_147\n      jumpi\n        /* \"#utility.yul\":1535:1614   */\n      tag_148\n      tag_140\n      jump\t// in\n    tag_148:\n        /* \"#utility.yul\":1497:1616   */\n    tag_147:\n        /* \"#utility.yul\":1655:1656   */\n      0x00\n        /* \"#utility.yul\":1680:1744   */\n      tag_149\n        /* \"#utility.yul\":1736:1743   */\n      dup5\n        /* \"#utility.yul\":1727:1733   */\n      dup3\n        /* \"#utility.yul\":1716:1725   */\n      dup6\n        /* \"#utility.yul\":1712:1734   */\n      add\n        /* \"#utility.yul\":1680:1744   */\n      tag_130\n      jump\t// in\n    tag_149:\n        /* \"#utility.yul\":1670:1744   */\n      swap2\n      pop\n        /* \"#utility.yul\":1626:1754   */\n      pop\n        /* \"#utility.yul\":1410:1761   */\n      swap3\n      swap2\n      pop\n      pop\n      jump\t// out\n        /* \"#utility.yul\":1767:2738   */\n    tag_85:\n        /* \"#utility.yul\":1870:1876   */\n      0x00\n        /* \"#utility.yul\":1878:1884   */\n      dup1\n        /* \"#utility.yul\":1886:1892   */\n      0x00\n        /* \"#utility.yul\":1894:1900   */\n      dup1\n        /* \"#utility.yul\":1902:1908   */\n      0x00\n        /* \"#utility.yul\":1951:1954   */\n      0xa0\n        /* \"#utility.yul\":1939:1948   */\n      dup7\n        /* \"#utility.yul\":1930:1937   */\n      dup9\n        /* \"#utility.yul\":1926:1949   */\n      sub\n        /* \"#utility.yul\":1922:1955   */\n      slt\n        /* \"#utility.yul\":1919:2039   */\n      iszero\n      tag_151\n      jumpi\n        /* \"#utility.yul\":1958:2037   */\n      tag_152\n      tag_140\n      jump\t// in\n    tag_152:\n        /* \"#utility.yul\":1919:2039   */\n    tag_151:\n        /* \"#utility.yul\":2078:2079   */\n      0x00\n        /* \"#utility.yul\":2103:2166   */\n      tag_153\n        /* \"#utility.yul\":2158:2165   */\n      dup9\n        /* \"#utility.yul\":2149:2155   */\n      dup3\n        /* \"#utility.yul\":2138:2147   */\n      dup10\n        /* \"#utility.yul\":2134:2156   */\n      add\n        /* \"#utility.yul\":2103:2166   */\n      tag_133\n      jump\t// in\n    tag_153:\n        /* \"#utility.yul\":2093:2166   */\n      swap6\n      pop\n        /* \"#utility.yul\":2049:2176   */\n      pop\n        /* \"#utility.yul\":2215:2217   */\n      0x20\n        /* \"#utility.yul\":2241:2304   */\n      tag_154\n        /* \"#utility.yul\":2296:2303   */\n      dup9\n        /* \"#utility.yul\":2287:2293   */\n      dup3\n        /* \"#utility.yul\":2276:2285   */\n      dup10\n        /* \"#utility.yul\":2272:2294   */\n      add\n        /* \"#utility.yul\":2241:2304   */\n      tag_122\n      jump\t// in\n    tag_154:\n        /* \"#utility.yul\":2231:2304   */\n      swap5\n      pop\n        /* \"#utility.yul\":2186:2314   */\n      pop\n        /* \"#utility.yul\":2353:2355   */\n      0x40\n        /* \"#utility.yul\":2379:2443   */\n      tag_155\n        /* \"#utility.yul\":2435:2442   */\n      dup9\n        /* \"#utility.yul\":2426:2432   */\n      dup3\n        /* \"#utility.yul\":2415:2424   */\n      dup10\n        /* \"#utility.yul\":2411:2433   */\n      add\n        /* \"#utility.yul\":2379:2443   */\n      tag_130\n      jump\t// in\n    tag_155:\n        /* \"#utility.yul\":2369:2443   */\n      swap4\n      pop\n        /* \"#utility.yul\":2324:2453   */\n      pop\n        /* \"#utility.yul\":2492:2494   */\n      0x60\n        /* \"#utility.yul\":2518:2582   */\n      tag_156\n        /* \"#utility.yul\":2574:2581   */\n      dup9\n        /* \"#utility.yul\":2565:2571   */\n      dup3\n        /* \"#utility.yul\":2554:2563   */\n      dup10\n        /* \"#utility.yul\":2550:2572   */\n      add\n        /* \"#utility.yul\":2518:2582   */\n      tag_130\n      jump\t// in\n    tag_156:\n        /* \"#utility.yul\":2508:2582   */\n      swap3\n      pop\n        /* \"#utility.yul\":2463:2592   */\n      pop\n        /* \"#utility.yul\":2631:2634   */\n      0x80\n        /* \"#utility.yul\":2658:2721   */\n      tag_157\n        /* \"#utility.yul\":2713:2720   */\n      dup9\n        /* \"#utility.yul\":2704:2710   */\n      dup3\n        /* \"#utility.yul\":2693:2702   */\n      dup10\n        /* \"#utility.yul\":2689:2711   */\n      add\n        /* \"#utility.yul\":2658:2721   */\n      tag_133\n      jump\t// in\n    tag_157:\n        /* \"#utility.yul\":2648:2721   */\n      swap2\n      pop\n        /* \"#utility.yul\":2602:2731   */\n      pop\n        /* \"#utility.yul\":1767:2738   */\n      swap3\n      swap6\n      pop\n      swap3\n      swap6\n      swap1\n      swap4\n      pop\n      jump\t// out\n        /* \"#utility.yul\":2744:2862   */\n    tag_158:\n        /* \"#utility.yul\":2831:2855   */\n      tag_160\n        /* \"#utility.yul\":2849:2854   */\n      dup2\n        /* \"#utility.yul\":2831:2855   */\n      tag_161\n      jump\t// in\n    tag_160:\n        /* \"#utility.yul\":2826:2829   */\n      dup3\n        /* \"#utility.yul\":2819:2856   */\n      mstore\n        /* \"#utility.yul\":2744:2862   */\n      pop\n      pop\n      jump\t// out\n        /* \"#utility.yul\":2868:3234   */\n    tag_162:\n        /* \"#utility.yul\":3010:3013   */\n      0x00\n        /* \"#utility.yul\":3031:3098   */\n      tag_164\n        /* \"#utility.yul\":3095:3097   */\n      0x0b\n        /* \"#utility.yul\":3090:3093   */\n      dup4\n        /* \"#utility.yul\":3031:3098   */\n      tag_165\n      jump\t// in\n    tag_164:\n        /* \"#utility.yul\":3024:3098   */\n      swap2\n      pop\n        /* \"#utility.yul\":3107:3200   */\n      tag_166\n        /* \"#utility.yul\":3196:3199   */\n      dup3\n        /* \"#utility.yul\":3107:3200   */\n      tag_167\n      jump\t// in\n    tag_166:\n        /* \"#utility.yul\":3225:3227   */\n      0x20\n        /* \"#utility.yul\":3220:3223   */\n      dup3\n        /* \"#utility.yul\":3216:3228   */\n      add\n        /* \"#utility.yul\":3209:3228   */\n      swap1\n      pop\n        /* \"#utility.yul\":2868:3234   */\n      swap2\n      swap1\n      pop\n      jump\t// out\n        /* \"#utility.yul\":3240:3638   */\n    tag_168:\n        /* \"#utility.yul\":3399:3402   */\n      0x00\n        /* \"#utility.yul\":3420:3503   */\n      tag_170\n        /* \"#utility.yul\":3501:3502   */\n      0x00\n        /* \"#utility.yul\":3496:3499   */\n      dup4\n        /* \"#utility.yul\":3420:3503   */\n      tag_171\n      jump\t// in\n    tag_170:\n        /* \"#utility.yul\":3413:3503   */\n      swap2\n      pop\n        /* \"#utility.yul\":3512:3605   */\n      tag_172\n        /* \"#utility.yul\":3601:3604   */\n      dup3\n        /* \"#utility.yul\":3512:3605   */\n      tag_173\n      jump\t// in\n    tag_172:\n        /* \"#utility.yul\":3630:3631   */\n      0x00\n        /* \"#utility.yul\":3625:3628   */\n      dup3\n        /* \"#utility.yul\":3621:3632   */\n      add\n        /* \"#utility.yul\":3614:3632   */\n      swap1\n      pop\n        /* \"#utility.yul\":3240:3638   */\n      swap2\n      swap1\n      pop\n      jump\t// out\n        /* \"#utility.yul\":3644:4010   */\n    tag_174:\n        /* \"#utility.yul\":3786:3789   */\n      0x00\n        /* \"#utility.yul\":3807:3874   */\n      tag_176\n        /* \"#utility.yul\":3871:3873   */\n      0x13\n        /* \"#utility.yul\":3866:3869   */\n      dup4\n        /* \"#utility.yul\":3807:3874   */\n      tag_165\n      jump\t// in\n    tag_176:\n        /* \"#utility.yul\":3800:3874   */\n      swap2\n      pop\n        /* \"#utility.yul\":3883:3976   */\n      tag_177\n        /* \"#utility.yul\":3972:3975   */\n      dup3\n        /* \"#utility.yul\":3883:3976   */\n      tag_178\n      jump\t// in\n    tag_177:\n        /* \"#utility.yul\":4001:4003   */\n      0x20\n        /* \"#utility.yul\":3996:3999   */\n      dup3\n        /* \"#utility.yul\":3992:4004   */\n      add\n        /* \"#utility.yul\":3985:4004   */\n      swap1\n      pop\n        /* \"#utility.yul\":3644:4010   */\n      swap2\n      swap1\n      pop\n      jump\t// out\n        /* \"#utility.yul\":4016:4382   */\n    tag_179:\n        /* \"#utility.yul\":4158:4161   */\n      0x00\n        /* \"#utility.yul\":4179:4246   */\n      tag_181\n        /* \"#utility.yul\":4243:4245   */\n      0x14\n        /* \"#utility.yul\":4238:4241   */\n      dup4\n        /* \"#utility.yul\":4179:4246   */\n      tag_165\n      jump\t// in\n    tag_181:\n        /* \"#utility.yul\":4172:4246   */\n      swap2\n      pop\n        /* \"#utility.yul\":4255:4348   */\n      tag_182\n        /* \"#utility.yul\":4344:4347   */\n      dup3\n        /* \"#utility.yul\":4255:4348   */\n      tag_183\n      jump\t// in\n    tag_182:\n        /* \"#utility.yul\":4373:4375   */\n      0x20\n        /* \"#utility.yul\":4368:4371   */\n      dup3\n        /* \"#utility.yul\":4364:4376   */\n      add\n        /* \"#utility.yul\":4357:4376   */\n      swap1\n      pop\n        /* \"#utility.yul\":4016:4382   */\n      swap2\n      swap1\n      pop\n      jump\t// out\n        /* \"#utility.yul\":4388:4506   */\n    tag_184:\n        /* \"#utility.yul\":4475:4499   */\n      tag_186\n        /* \"#utility.yul\":4493:4498   */\n      dup2\n        /* \"#utility.yul\":4475:4499   */\n      tag_187\n      jump\t// in\n    tag_186:\n        /* \"#utility.yul\":4470:4473   */\n      dup3\n        /* \"#utility.yul\":4463:4500   */\n      mstore\n        /* \"#utility.yul\":4388:4506   */\n      pop\n      pop\n      jump\t// out\n        /* \"#utility.yul\":4512:4891   */\n    tag_73:\n        /* \"#utility.yul\":4696:4699   */\n      0x00\n        /* \"#utility.yul\":4718:4865   */\n      tag_189\n        /* \"#utility.yul\":4861:4864   */\n      dup3\n        /* \"#utility.yul\":4718:4865   */\n      tag_168\n      jump\t// in\n    tag_189:\n        /* \"#utility.yul\":4711:4865   */\n      swap2\n      pop\n        /* \"#utility.yul\":4882:4885   */\n      dup2\n        /* \"#utility.yul\":4875:4885   */\n      swap1\n      pop\n        /* \"#utility.yul\":4512:4891   */\n      swap2\n      swap1\n      pop\n      jump\t// out\n        /* \"#utility.yul\":4897:5119   */\n    tag_33:\n        /* \"#utility.yul\":4990:4994   */\n      0x00\n        /* \"#utility.yul\":5028:5030   */\n      0x20\n        /* \"#utility.yul\":5017:5026   */\n      dup3\n        /* \"#utility.yul\":5013:5031   */\n      add\n        /* \"#utility.yul\":5005:5031   */\n      swap1\n      pop\n        /* \"#utility.yul\":5041:5112   */\n      tag_191\n        /* \"#utility.yul\":5109:5110   */\n      0x00\n        /* \"#utility.yul\":5098:5107   */\n      dup4\n        /* \"#utility.yul\":5094:5111   */\n      add\n        /* \"#utility.yul\":5085:5091   */\n      dup5\n        /* \"#utility.yul\":5041:5112   */\n      tag_158\n      jump\t// in\n    tag_191:\n        /* \"#utility.yul\":4897:5119   */\n      swap3\n      swap2\n      pop\n      pop\n      jump\t// out\n        /* \"#utility.yul\":5125:5544   */\n    tag_79:\n        /* \"#utility.yul\":5291:5295   */\n      0x00\n        /* \"#utility.yul\":5329:5331   */\n      0x20\n        /* \"#utility.yul\":5318:5327   */\n      dup3\n        /* \"#utility.yul\":5314:5332   */\n      add\n        /* \"#utility.yul\":5306:5332   */\n      swap1\n      pop\n        /* \"#utility.yul\":5378:5387   */\n      dup2\n        /* \"#utility.yul\":5372:5376   */\n      dup2\n        /* \"#utility.yul\":5368:5388   */\n      sub\n        /* \"#utility.yul\":5364:5365   */\n      0x00\n        /* \"#utility.yul\":5353:5362   */\n      dup4\n        /* \"#utility.yul\":5349:5366   */\n      add\n        /* \"#utility.yul\":5342:5389   */\n      mstore\n        /* \"#utility.yul\":5406:5537   */\n      tag_193\n        /* \"#utility.yul\":5532:5536   */\n      dup2\n        /* \"#utility.yul\":5406:5537   */\n      tag_162\n      jump\t// in\n    tag_193:\n        /* \"#utility.yul\":5398:5537   */\n      swap1\n      pop\n        /* \"#utility.yul\":5125:5544   */\n      swap2\n      swap1\n      pop\n      jump\t// out\n        /* \"#utility.yul\":5550:5969   */\n    tag_93:\n        /* \"#utility.yul\":5716:5720   */\n      0x00\n        /* \"#utility.yul\":5754:5756   */\n      0x20\n        /* \"#utility.yul\":5743:5752   */\n      dup3\n        /* \"#utility.yul\":5739:5757   */\n      add\n        /* \"#utility.yul\":5731:5757   */\n      swap1\n      pop\n        /* \"#utility.yul\":5803:5812   */\n      dup2\n        /* \"#utility.yul\":5797:5801   */\n      dup2\n        /* \"#utility.yul\":5793:5813   */\n      sub\n        /* \"#utility.yul\":5789:5790   */\n      0x00\n        /* \"#utility.yul\":5778:5787   */\n      dup4\n        /* \"#utility.yul\":5774:5791   */\n      add\n        /* \"#utility.yul\":5767:5814   */\n      mstore\n        /* \"#utility.yul\":5831:5962   */\n      tag_195\n        /* \"#utility.yul\":5957:5961   */\n      dup2\n        /* \"#utility.yul\":5831:5962   */\n      tag_174\n      jump\t// in\n    tag_195:\n        /* \"#utility.yul\":5823:5962   */\n      swap1\n      pop\n        /* \"#utility.yul\":5550:5969   */\n      swap2\n      swap1\n      pop\n      jump\t// out\n        /* \"#utility.yul\":5975:6394   */\n    tag_55:\n        /* \"#utility.yul\":6141:6145   */\n      0x00\n        /* \"#utility.yul\":6179:6181   */\n      0x20\n        /* \"#utility.yul\":6168:6177   */\n      dup3\n        /* \"#utility.yul\":6164:6182   */\n      add\n        /* \"#utility.yul\":6156:6182   */\n      swap1\n      pop\n        /* \"#utility.yul\":6228:6237   */\n      dup2\n        /* \"#utility.yul\":6222:6226   */\n      dup2\n        /* \"#utility.yul\":6218:6238   */\n      sub\n        /* \"#utility.yul\":6214:6215   */\n      0x00\n        /* \"#utility.yul\":6203:6212   */\n      dup4\n        /* \"#utility.yul\":6199:6216   */\n      add\n        /* \"#utility.yul\":6192:6239   */\n      mstore\n        /* \"#utility.yul\":6256:6387   */\n      tag_197\n        /* \"#utility.yul\":6382:6386   */\n      dup2\n        /* \"#utility.yul\":6256:6387   */\n      tag_179\n      jump\t// in\n    tag_197:\n        /* \"#utility.yul\":6248:6387   */\n      swap1\n      pop\n        /* \"#utility.yul\":5975:6394   */\n      swap2\n      swap1\n      pop\n      jump\t// out\n        /* \"#utility.yul\":6400:6622   */\n    tag_15:\n        /* \"#utility.yul\":6493:6497   */\n      0x00\n        /* \"#utility.yul\":6531:6533   */\n      0x20\n        /* \"#utility.yul\":6520:6529   */\n      dup3\n        /* \"#utility.yul\":6516:6534   */\n      add\n        /* \"#utility.yul\":6508:6534   */\n      swap1\n      pop\n        /* \"#utility.yul\":6544:6615   */\n      tag_199\n        /* \"#utility.yul\":6612:6613   */\n      0x00\n        /* \"#utility.yul\":6601:6610   */\n      dup4\n        /* \"#utility.yul\":6597:6614   */\n      add\n        /* \"#utility.yul\":6588:6594   */\n      dup5\n        /* \"#utility.yul\":6544:6615   */\n      tag_184\n      jump\t// in\n    tag_199:\n        /* \"#utility.yul\":6400:6622   */\n      swap3\n      swap2\n      pop\n      pop\n      jump\t// out\n        /* \"#utility.yul\":6709:6856   */\n    tag_171:\n        /* \"#utility.yul\":6810:6821   */\n      0x00\n        /* \"#utility.yul\":6847:6850   */\n      dup2\n        /* \"#utility.yul\":6832:6850   */\n      swap1\n      pop\n        /* \"#utility.yul\":6709:6856   */\n      swap3\n      swap2\n      pop\n      pop\n      jump\t// out\n        /* \"#utility.yul\":6862:7031   */\n    tag_165:\n        /* \"#utility.yul\":6946:6957   */\n      0x00\n        /* \"#utility.yul\":6980:6986   */\n      dup3\n        /* \"#utility.yul\":6975:6978   */\n      dup3\n        /* \"#utility.yul\":6968:6987   */\n      mstore\n        /* \"#utility.yul\":7020:7024   */\n      0x20\n        /* \"#utility.yul\":7015:7018   */\n      dup3\n        /* \"#utility.yul\":7011:7025   */\n      add\n        /* \"#utility.yul\":6996:7025   */\n      swap1\n      pop\n        /* \"#utility.yul\":6862:7031   */\n      swap3\n      swap2\n      pop\n      pop\n      jump\t// out\n        /* \"#utility.yul\":7037:7222   */\n    tag_103:\n        /* \"#utility.yul\":7077:7078   */\n      0x00\n        /* \"#utility.yul\":7094:7114   */\n      tag_205\n        /* \"#utility.yul\":7112:7113   */\n      dup3\n        /* \"#utility.yul\":7094:7114   */\n      tag_187\n      jump\t// in\n    tag_205:\n        /* \"#utility.yul\":7089:7114   */\n      swap2\n      pop\n        /* \"#utility.yul\":7128:7148   */\n      tag_206\n        /* \"#utility.yul\":7146:7147   */\n      dup4\n        /* \"#utility.yul\":7128:7148   */\n      tag_187\n      jump\t// in\n    tag_206:\n        /* \"#utility.yul\":7123:7148   */\n      swap3\n      pop\n        /* \"#utility.yul\":7167:7168   */\n      dup3\n        /* \"#utility.yul\":7157:7192   */\n      tag_207\n      jumpi\n        /* \"#utility.yul\":7172:7190   */\n      tag_208\n      tag_209\n      jump\t// in\n    tag_208:\n        /* \"#utility.yul\":7157:7192   */\n    tag_207:\n        /* \"#utility.yul\":7214:7215   */\n      dup3\n        /* \"#utility.yul\":7211:7212   */\n      dup3\n        /* \"#utility.yul\":7207:7216   */\n      div\n        /* \"#utility.yul\":7202:7216   */\n      swap1\n      pop\n        /* \"#utility.yul\":7037:7222   */\n      swap3\n      swap2\n      pop\n      pop\n      jump\t// out\n        /* \"#utility.yul\":7228:8219   */\n    tag_87:\n        /* \"#utility.yul\":7267:7274   */\n      0x00\n        /* \"#utility.yul\":7290:7309   */\n      tag_211\n        /* \"#utility.yul\":7307:7308   */\n      dup3\n        /* \"#utility.yul\":7290:7309   */\n      tag_212\n      jump\t// in\n    tag_211:\n        /* \"#utility.yul\":7285:7309   */\n      swap2\n      pop\n        /* \"#utility.yul\":7323:7342   */\n      tag_213\n        /* \"#utility.yul\":7340:7341   */\n      dup4\n        /* \"#utility.yul\":7323:7342   */\n      tag_212\n      jump\t// in\n    tag_213:\n        /* \"#utility.yul\":7318:7342   */\n      swap3\n      pop\n        /* \"#utility.yul\":7524:7525   */\n      dup3\n        /* \"#utility.yul\":7456:7522   */\n      0x7fffffffffffffffffffffffffffffffffffffffffffffffffffffffffffffff\n        /* \"#utility.yul\":7452:7526   */\n      div\n        /* \"#utility.yul\":7449:7450   */\n      dup3\n        /* \"#utility.yul\":7446:7527   */\n      gt\n        /* \"#utility.yul\":7441:7442   */\n      0x00\n        /* \"#utility.yul\":7438:7439   */\n      dup5\n        /* \"#utility.yul\":7434:7443   */\n      sgt\n        /* \"#utility.yul\":7430:7431   */\n      0x00\n        /* \"#utility.yul\":7427:7428   */\n      dup5\n        /* \"#utility.yul\":7423:7432   */\n      sgt\n        /* \"#utility.yul\":7419:7444   */\n      and\n        /* \"#utility.yul\":7415:7528   */\n      and\n        /* \"#utility.yul\":7412:7551   */\n      iszero\n      tag_214\n      jumpi\n        /* \"#utility.yul\":7531:7549   */\n      tag_215\n      tag_216\n      jump\t// in\n    tag_215:\n        /* \"#utility.yul\":7412:7551   */\n    tag_214:\n        /* \"#utility.yul\":7735:7736   */\n      dup2\n        /* \"#utility.yul\":7667:7733   */\n      0x8000000000000000000000000000000000000000000000000000000000000000\n        /* \"#utility.yul\":7662:7737   */\n      sdiv\n        /* \"#utility.yul\":7659:7660   */\n      dup4\n        /* \"#utility.yul\":7655:7738   */\n      slt\n        /* \"#utility.yul\":7650:7651   */\n      0x00\n        /* \"#utility.yul\":7647:7648   */\n      dup5\n        /* \"#utility.yul\":7643:7652   */\n      slt\n        /* \"#utility.yul\":7639:7640   */\n      0x00\n        /* \"#utility.yul\":7636:7637   */\n      dup5\n        /* \"#utility.yul\":7632:7641   */\n      sgt\n        /* \"#utility.yul\":7628:7653   */\n      and\n        /* \"#utility.yul\":7624:7739   */\n      and\n        /* \"#utility.yul\":7621:7762   */\n      iszero\n      tag_217\n      jumpi\n        /* \"#utility.yul\":7742:7760   */\n      tag_218\n      tag_216\n      jump\t// in\n    tag_218:\n        /* \"#utility.yul\":7621:7762   */\n    tag_217:\n        /* \"#utility.yul\":7946:7947   */\n      dup3\n        /* \"#utility.yul\":7878:7944   */\n      0x8000000000000000000000000000000000000000000000000000000000000000\n        /* \"#utility.yul\":7873:7948   */\n      sdiv\n        /* \"#utility.yul\":7870:7871   */\n      dup3\n        /* \"#utility.yul\":7866:7949   */\n      slt\n        /* \"#utility.yul\":7861:7862   */\n      0x00\n        /* \"#utility.yul\":7858:7859   */\n      dup5\n        /* \"#utility.yul\":7854:7863   */\n      sgt\n        /* \"#utility.yul\":7850:7851   */\n      0x00\n        /* \"#utility.yul\":7847:7848   */\n      dup5\n        /* \"#utility.yul\":7843:7852   */\n      slt\n        /* \"#utility.yul\":7839:7864   */\n      and\n        /* \"#utility.yul\":7835:7950   */\n      and\n        /* \"#utility.yul\":7832:7973   */\n      iszero\n      tag_219\n      jumpi\n        /* \"#utility.yul\":7953:7971   */\n      tag_220\n      tag_216\n      jump\t// in\n    tag_220:\n        /* \"#utility.yul\":7832:7973   */\n    tag_219:\n        /* \"#utility.yul\":8156:8157   */\n      dup3\n        /* \"#utility.yul\":8088:8154   */\n      0x7fffffffffffffffffffffffffffffffffffffffffffffffffffffffffffffff\n        /* \"#utility.yul\":8083:8158   */\n      sdiv\n        /* \"#utility.yul\":8080:8081   */\n      dup3\n        /* \"#utility.yul\":8076:8159   */\n      slt\n        /* \"#utility.yul\":8071:8072   */\n      0x00\n        /* \"#utility.yul\":8068:8069   */\n      dup5\n        /* \"#utility.yul\":8064:8073   */\n      slt\n        /* \"#utility.yul\":8060:8061   */\n      0x00\n        /* \"#utility.yul\":8057:8058   */\n      dup5\n        /* \"#utility.yul\":8053:8062   */\n      slt\n        /* \"#utility.yul\":8049:8074   */\n      and\n        /* \"#utility.yul\":8045:8160   */\n      and\n        /* \"#utility.yul\":8042:8183   */\n      iszero\n      tag_221\n      jumpi\n        /* \"#utility.yul\":8163:8181   */\n      tag_222\n      tag_216\n      jump\t// in\n    tag_222:\n        /* \"#utility.yul\":8042:8183   */\n    tag_221:\n        /* \"#utility.yul\":8211:8212   */\n      dup3\n        /* \"#utility.yul\":8208:8209   */\n      dup3\n        /* \"#utility.yul\":8204:8213   */\n      mul\n        /* \"#utility.yul\":8193:8213   */\n      swap1\n      pop\n        /* \"#utility.yul\":7228:8219   */\n      swap3\n      swap2\n      pop\n      pop\n      jump\t// out\n        /* \"#utility.yul\":8225:8573   */\n    tag_101:\n        /* \"#utility.yul\":8265:8272   */\n      0x00\n        /* \"#utility.yul\":8288:8308   */\n      tag_224\n        /* \"#utility.yul\":8306:8307   */\n      dup3\n        /* \"#utility.yul\":8288:8308   */\n      tag_187\n      jump\t// in\n    tag_224:\n        /* \"#utility.yul\":8283:8308   */\n      swap2\n      pop\n        /* \"#utility.yul\":8322:8342   */\n      tag_225\n        /* \"#utility.yul\":8340:8341   */\n      dup4\n        /* \"#utility.yul\":8322:8342   */\n      tag_187\n      jump\t// in\n    tag_225:\n        /* \"#utility.yul\":8317:8342   */\n      swap3\n      pop\n        /* \"#utility.yul\":8510:8511   */\n      dup2\n        /* \"#utility.yul\":8442:8508   */\n      0xffffffffffffffffffffffffffffffffffffffffffffffffffffffffffffffff\n        /* \"#utility.yul\":8438:8512   */\n      div\n        /* \"#utility.yul\":8435:8436   */\n      dup4\n        /* \"#utility.yul\":8432:8513   */\n      gt\n        /* \"#utility.yul\":8427:8428   */\n      dup3\n        /* \"#utility.yul\":8420:8429   */\n      iszero\n        /* \"#utility.yul\":8413:8430   */\n      iszero\n        /* \"#utility.yul\":8409:8514   */\n      and\n        /* \"#utility.yul\":8406:8537   */\n      iszero\n      tag_226\n      jumpi\n        /* \"#utility.yul\":8517:8535   */\n      tag_227\n      tag_216\n      jump\t// in\n    tag_227:\n        /* \"#utility.yul\":8406:8537   */\n    tag_226:\n        /* \"#utility.yul\":8565:8566   */\n      dup3\n        /* \"#utility.yul\":8562:8563   */\n      dup3\n        /* \"#utility.yul\":8558:8567   */\n      mul\n        /* \"#utility.yul\":8547:8567   */\n      swap1\n      pop\n        /* \"#utility.yul\":8225:8573   */\n      swap3\n      swap2\n      pop\n      pop\n      jump\t// out\n        /* \"#utility.yul\":8579:8675   */\n    tag_161:\n        /* \"#utility.yul\":8616:8623   */\n      0x00\n        /* \"#utility.yul\":8645:8669   */\n      tag_229\n        /* \"#utility.yul\":8663:8668   */\n      dup3\n        /* \"#utility.yul\":8645:8669   */\n      tag_230\n      jump\t// in\n    tag_229:\n        /* \"#utility.yul\":8634:8669   */\n      swap1\n      pop\n        /* \"#utility.yul\":8579:8675   */\n      swap2\n      swap1\n      pop\n      jump\t// out\n        /* \"#utility.yul\":8681:8757   */\n    tag_212:\n        /* \"#utility.yul\":8717:8724   */\n      0x00\n        /* \"#utility.yul\":8746:8751   */\n      dup2\n        /* \"#utility.yul\":8735:8751   */\n      swap1\n      pop\n        /* \"#utility.yul\":8681:8757   */\n      swap2\n      swap1\n      pop\n      jump\t// out\n        /* \"#utility.yul\":8763:8889   */\n    tag_230:\n        /* \"#utility.yul\":8800:8807   */\n      0x00\n        /* \"#utility.yul\":8840:8882   */\n      0xffffffffffffffffffffffffffffffffffffffff\n        /* \"#utility.yul\":8833:8838   */\n      dup3\n        /* \"#utility.yul\":8829:8883   */\n      and\n        /* \"#utility.yul\":8818:8883   */\n      swap1\n      pop\n        /* \"#utility.yul\":8763:8889   */\n      swap2\n      swap1\n      pop\n      jump\t// out\n        /* \"#utility.yul\":8895:8972   */\n    tag_187:\n        /* \"#utility.yul\":8932:8939   */\n      0x00\n        /* \"#utility.yul\":8961:8966   */\n      dup2\n        /* \"#utility.yul\":8950:8966   */\n      swap1\n      pop\n        /* \"#utility.yul\":8895:8972   */\n      swap2\n      swap1\n      pop\n      jump\t// out\n        /* \"#utility.yul\":8978:9083   */\n    tag_234:\n        /* \"#utility.yul\":9014:9021   */\n      0x00\n        /* \"#utility.yul\":9054:9076   */\n      0xffffffffffffffffffff\n        /* \"#utility.yul\":9047:9052   */\n      dup3\n        /* \"#utility.yul\":9043:9077   */\n      and\n        /* \"#utility.yul\":9032:9077   */\n      swap1\n      pop\n        /* \"#utility.yul\":8978:9083   */\n      swap2\n      swap1\n      pop\n      jump\t// out\n        /* \"#utility.yul\":9089:9322   */\n    tag_65:\n        /* \"#utility.yul\":9128:9131   */\n      0x00\n        /* \"#utility.yul\":9151:9175   */\n      tag_237\n        /* \"#utility.yul\":9169:9174   */\n      dup3\n        /* \"#utility.yul\":9151:9175   */\n      tag_187\n      jump\t// in\n    tag_237:\n        /* \"#utility.yul\":9142:9175   */\n      swap2\n      pop\n        /* \"#utility.yul\":9197:9263   */\n      0xffffffffffffffffffffffffffffffffffffffffffffffffffffffffffffffff\n        /* \"#utility.yul\":9190:9195   */\n      dup3\n        /* \"#utility.yul\":9187:9264   */\n      eq\n        /* \"#utility.yul\":9184:9287   */\n      iszero\n      tag_238\n      jumpi\n        /* \"#utility.yul\":9267:9285   */\n      tag_239\n      tag_216\n      jump\t// in\n    tag_239:\n        /* \"#utility.yul\":9184:9287   */\n    tag_238:\n        /* \"#utility.yul\":9314:9315   */\n      0x01\n        /* \"#utility.yul\":9307:9312   */\n      dup3\n        /* \"#utility.yul\":9303:9316   */\n      add\n        /* \"#utility.yul\":9296:9316   */\n      swap1\n      pop\n        /* \"#utility.yul\":9089:9322   */\n      swap2\n      swap1\n      pop\n      jump\t// out\n        /* \"#utility.yul\":9328:9508   */\n    tag_216:\n        /* \"#utility.yul\":9376:9453   */\n      0x4e487b7100000000000000000000000000000000000000000000000000000000\n        /* \"#utility.yul\":9373:9374   */\n      0x00\n        /* \"#utility.yul\":9366:9454   */\n      mstore\n        /* \"#utility.yul\":9473:9477   */\n      0x11\n        /* \"#utility.yul\":9470:9471   */\n      0x04\n        /* \"#utility.yul\":9463:9478   */\n      mstore\n        /* \"#utility.yul\":9497:9501   */\n      0x24\n        /* \"#utility.yul\":9494:9495   */\n      0x00\n        /* \"#utility.yul\":9487:9502   */\n      revert\n        /* \"#utility.yul\":9514:9694   */\n    tag_209:\n        /* \"#utility.yul\":9562:9639   */\n      0x4e487b7100000000000000000000000000000000000000000000000000000000\n        /* \"#utility.yul\":9559:9560   */\n      0x00\n        /* \"#utility.yul\":9552:9640   */\n      mstore\n        /* \"#utility.yul\":9659:9663   */\n      0x12\n        /* \"#utility.yul\":9656:9657   */\n      0x04\n        /* \"#utility.yul\":9649:9664   */\n      mstore\n        /* \"#utility.yul\":9683:9687   */\n      0x24\n        /* \"#utility.yul\":9680:9681   */\n      0x00\n        /* \"#utility.yul\":9673:9688   */\n      revert\n        /* \"#utility.yul\":9700:9880   */\n    tag_62:\n        /* \"#utility.yul\":9748:9825   */\n      0x4e487b7100000000000000000000000000000000000000000000000000000000\n        /* \"#utility.yul\":9745:9746   */\n      0x00\n        /* \"#utility.yul\":9738:9826   */\n      mstore\n        /* \"#utility.yul\":9845:9849   */\n      0x32\n        /* \"#utility.yul\":9842:9843   */\n      0x04\n        /* \"#utility.yul\":9835:9850   */\n      mstore\n        /* \"#utility.yul\":9869:9873   */\n      0x24\n        /* \"#utility.yul\":9866:9867   */\n      0x00\n        /* \"#utility.yul\":9859:9874   */\n      revert\n        /* \"#utility.yul\":9886:10066   */\n    tag_68:\n        /* \"#utility.yul\":9934:10011   */\n      0x4e487b7100000000000000000000000000000000000000000000000000000000\n        /* \"#utility.yul\":9931:9932   */\n      0x00\n        /* \"#utility.yul\":9924:10012   */\n      mstore\n        /* \"#utility.yul\":10031:10035   */\n      0x41\n        /* \"#utility.yul\":10028:10029   */\n      0x04\n        /* \"#utility.yul\":10021:10036   */\n      mstore\n        /* \"#utility.yul\":10055:10059   */\n      0x24\n        /* \"#utility.yul\":10052:10053   */\n      0x00\n        /* \"#utility.yul\":10045:10060   */\n      revert\n        /* \"#utility.yul\":10195:10312   */\n    tag_140:\n        /* \"#utility.yul\":10304:10305   */\n      0x00\n        /* \"#utility.yul\":10301:10302   */\n      dup1\n        /* \"#utility.yul\":10294:10306   */\n      revert\n        /* \"#utility.yul\":10318:10479   */\n    tag_167:\n        /* \"#utility.yul\":10458:10471   */\n      0x63616c6c206661696c6564000000000000000000000000000000000000000000\n        /* \"#utility.yul\":10454:10455   */\n      0x00\n        /* \"#utility.yul\":10446:10452   */\n      dup3\n        /* \"#utility.yul\":10442:10456   */\n      add\n        /* \"#utility.yul\":10435:10472   */\n      mstore\n        /* \"#utility.yul\":10318:10479   */\n      pop\n      jump\t// out\n        /* \"#utility.yul\":10485:10599   */\n    tag_173:\n      pop\n      jump\t// out\n        /* \"#utility.yul\":10605:10774   */\n    tag_178:\n        /* \"#utility.yul\":10745:10766   */\n      0x4469646e27742073656e6420656e6f7567682100000000000000000000000000\n        /* \"#utility.yul\":10741:10742   */\n      0x00\n        /* \"#utility.yul\":10733:10739   */\n      dup3\n        /* \"#utility.yul\":10729:10743   */\n      add\n        /* \"#utility.yul\":10722:10767   */\n      mstore\n        /* \"#utility.yul\":10605:10774   */\n      pop\n      jump\t// out\n        /* \"#utility.yul\":10780:10950   */\n    tag_183:\n        /* \"#utility.yul\":10920:10942   */\n      0x53656e646572206973206e6f74206f776e657221000000000000000000000000\n        /* \"#utility.yul\":10916:10917   */\n      0x00\n        /* \"#utility.yul\":10908:10914   */\n      dup3\n        /* \"#utility.yul\":10904:10918   */\n      add\n        /* \"#utility.yul\":10897:10943   */\n      mstore\n        /* \"#utility.yul\":10780:10950   */\n      pop\n      jump\t// out\n        /* \"#utility.yul\":10956:11078   */\n    tag_121:\n        /* \"#utility.yul\":11029:11053   */\n      tag_252\n        /* \"#utility.yul\":11047:11052   */\n      dup2\n        /* \"#utility.yul\":11029:11053   */\n      tag_161\n      jump\t// in\n    tag_252:\n        /* \"#utility.yul\":11022:11027   */\n      dup2\n        /* \"#utility.yul\":11019:11054   */\n      eq\n        /* \"#utility.yul\":11009:11072   */\n      tag_253\n      jumpi\n        /* \"#utility.yul\":11068:11069   */\n      0x00\n        /* \"#utility.yul\":11065:11066   */\n      dup1\n        /* \"#utility.yul\":11058:11070   */\n      revert\n        /* \"#utility.yul\":11009:11072   */\n    tag_253:\n        /* \"#utility.yul\":10956:11078   */\n      pop\n      jump\t// out\n        /* \"#utility.yul\":11084:11204   */\n    tag_125:\n        /* \"#utility.yul\":11156:11179   */\n      tag_255\n        /* \"#utility.yul\":11173:11178   */\n      dup2\n        /* \"#utility.yul\":11156:11179   */\n      tag_212\n      jump\t// in\n    tag_255:\n        /* \"#utility.yul\":11149:11154   */\n      dup2\n        /* \"#utility.yul\":11146:11180   */\n      eq\n        /* \"#utility.yul\":11136:11198   */\n      tag_256\n      jumpi\n        /* \"#utility.yul\":11194:11195   */\n      0x00\n        /* \"#utility.yul\":11191:11192   */\n      dup1\n        /* \"#utility.yul\":11184:11196   */\n      revert\n        /* \"#utility.yul\":11136:11198   */\n    tag_256:\n        /* \"#utility.yul\":11084:11204   */\n      pop\n      jump\t// out\n        /* \"#utility.yul\":11210:11332   */\n    tag_129:\n        /* \"#utility.yul\":11283:11307   */\n      tag_258\n        /* \"#utility.yul\":11301:11306   */\n      dup2\n        /* \"#utility.yul\":11283:11307   */\n      tag_187\n      jump\t// in\n    tag_258:\n        /* \"#utility.yul\":11276:11281   */\n      dup2\n        /* \"#utility.yul\":11273:11308   */\n      eq\n        /* \"#utility.yul\":11263:11326   */\n      tag_259\n      jumpi\n        /* \"#utility.yul\":11322:11323   */\n      0x00\n        /* \"#utility.yul\":11319:11320   */\n      dup1\n        /* \"#utility.yul\":11312:11324   */\n      revert\n        /* \"#utility.yul\":11263:11326   */\n    tag_259:\n        /* \"#utility.yul\":11210:11332   */\n      pop\n      jump\t// out\n        /* \"#utility.yul\":11338:11458   */\n    tag_136:\n        /* \"#utility.yul\":11410:11433   */\n      tag_261\n        /* \"#utility.yul\":11427:11432   */\n      dup2\n        /* \"#utility.yul\":11410:11433   */\n      tag_234\n      jump\t// in\n    tag_261:\n        /* \"#utility.yul\":11403:11408   */\n      dup2\n        /* \"#utility.yul\":11400:11434   */\n      eq\n        /* \"#utility.yul\":11390:11452   */\n      tag_262\n      jumpi\n        /* \"#utility.yul\":11448:11449   */\n      0x00\n        /* \"#utility.yul\":11445:11446   */\n      dup1\n        /* \"#utility.yul\":11438:11450   */\n      revert\n        /* \"#utility.yul\":11390:11452   */\n    tag_262:\n        /* \"#utility.yul\":11338:11458   */\n      pop\n      jump\t// out\n\n    auxdata: 0xa2646970667358221220e8ce295fb60f847e0daa937a12b4f59914116146430db943dc8ce571572bedf164736f6c63430008070033\n}\n",
				"bytecode": {
					"linkReferences": {},
					"object": "60806040526802b5e3af16b188000060025534801561001d57600080fd5b5033600360006101000a81548173ffffffffffffffffffffffffffffffffffffffff021916908373ffffffffffffffffffffffffffffffffffffffff160217905550610f6e8061006e6000396000f3fe60806040526004361061007b5760003560e01c80638da5cb5b1161004e5780638da5cb5b1461012a57806398d5fdca14610155578063b60d428814610180578063dc0d3dff1461018a5761007b565b8063098de820146100805780630d8e6e2c146100ab5780633ccfd60b146100d65780633e47d6f3146100ed575b600080fd5b34801561008c57600080fd5b506100956101c7565b6040516100a29190610b1f565b60405180910390f35b3480156100b757600080fd5b506100c06101cd565b6040516100cd9190610b1f565b60405180910390f35b3480156100e257600080fd5b506100eb61026b565b005b3480156100f957600080fd5b50610114600480360381019061010f91906108e3565b6104b6565b6040516101219190610b1f565b60405180910390f35b34801561013657600080fd5b5061013f6104ce565b60405161014c9190610aa4565b60405180910390f35b34801561016157600080fd5b5061016a6104f4565b6040516101779190610b1f565b60405180910390f35b6101886105ac565b005b34801561019657600080fd5b506101b160048036038101906101ac9190610910565b6106a2565b6040516101be9190610aa4565b60405180910390f35b60025481565b60008073694aa1769357215de4fac081bf1f309adc32530690508073ffffffffffffffffffffffffffffffffffffffff166354fd4d506040518163ffffffff1660e01b815260040160206040518083038186803b15801561022d57600080fd5b505afa158015610241573d6000803e3d6000fd5b505050506040513d601f19601f82011682018060405250810190610265919061093d565b91505090565b600360009054906101000a900473ffffffffffffffffffffffffffffffffffffffff1673ffffffffffffffffffffffffffffffffffffffff163373ffffffffffffffffffffffffffffffffffffffff16146102fb576040517f08c379a00000000000000000000000000000000000000000000000000000000081526004016102f290610aff565b60405180910390fd5b60005b6000805490508110156103a65760008082815481106103205761031f610dfb565b5b9060005260206000200160009054906101000a900473ffffffffffffffffffffffffffffffffffffffff1690506000600160008373ffffffffffffffffffffffffffffffffffffffff1673ffffffffffffffffffffffffffffffffffffffff1681526020019081526020016000208190555050808061039e90610d54565b9150506102fe565b50600067ffffffffffffffff8111156103c2576103c1610e2a565b5b6040519080825280602002602001820160405280156103f05781602001602082028036833780820191505090505b50600090805190602001906104069291906107d3565b5060003373ffffffffffffffffffffffffffffffffffffffff164760405161042d90610a8f565b60006040518083038185875af1925050503d806000811461046a576040519150601f19603f3d011682016040523d82523d6000602084013e61046f565b606091505b50509050806104b3576040517f08c379a00000000000000000000000000000000000000000000000000000000081526004016104aa90610abf565b60405180910390fd5b50565b60016020528060005260406000206000915090505481565b600360009054906101000a900473ffffffffffffffffffffffffffffffffffffffff1681565b60008073694aa1769357215de4fac081bf1f309adc325306905060008173ffffffffffffffffffffffffffffffffffffffff1663feaf968c6040518163ffffffff1660e01b815260040160a06040518083038186803b15801561055657600080fd5b505afa15801561056a573d6000803e3d6000fd5b505050506040513d601f19601f8201168201806040525081019061058e919061096a565b5050509150506402540be400816105a59190610b87565b9250505090565b6002546105b8346106e1565b10156105f9576040517f08c379a00000000000000000000000000000000000000000000000000000000081526004016105f090610adf565b60405180910390fd5b6000339080600181540180825580915050600190039060005260206000200160009091909190916101000a81548173ffffffffffffffffffffffffffffffffffffffff021916908373ffffffffffffffffffffffffffffffffffffffff16021790555034600160003373ffffffffffffffffffffffffffffffffffffffff1673ffffffffffffffffffffffffffffffffffffffff16815260200190815260200160002081905550565b600081815481106106b257600080fd5b906000526020600020016000915054906101000a900473ffffffffffffffffffffffffffffffffffffffff1681565b6000806106ec61071b565b90506000670de0b6b3a764000084836107059190610c9e565b61070f9190610b56565b90508092505050919050565b60008073694aa1769357215de4fac081bf1f309adc325306905060008173ffffffffffffffffffffffffffffffffffffffff1663feaf968c6040518163ffffffff1660e01b815260040160a06040518083038186803b15801561077d57600080fd5b505afa158015610791573d6000803e3d6000fd5b505050506040513d601f19601f820116820180604052508101906107b5919061096a565b5050509150506402540be400816107cc9190610b87565b9250505090565b82805482825590600052602060002090810192821561084c579160200282015b8281111561084b5782518260006101000a81548173ffffffffffffffffffffffffffffffffffffffff021916908373ffffffffffffffffffffffffffffffffffffffff160217905550916020019190600101906107f3565b5b509050610859919061085d565b5090565b5b8082111561087657600081600090555060010161085e565b5090565b60008135905061088981610edc565b92915050565b60008151905061089e81610ef3565b92915050565b6000813590506108b381610f0a565b92915050565b6000815190506108c881610f0a565b92915050565b6000815190506108dd81610f21565b92915050565b6000602082840312156108f9576108f8610e59565b5b60006109078482850161087a565b91505092915050565b60006020828403121561092657610925610e59565b5b6000610934848285016108a4565b91505092915050565b60006020828403121561095357610952610e59565b5b6000610961848285016108b9565b91505092915050565b600080600080600060a0868803121561098657610985610e59565b5b6000610994888289016108ce565b95505060206109a58882890161088f565b94505060406109b6888289016108b9565b93505060606109c7888289016108b9565b92505060806109d8888289016108ce565b9150509295509295909350565b6109ee81610cf8565b82525050565b6000610a01600b83610b45565b9150610a0c82610e5e565b602082019050919050565b6000610a24600083610b3a565b9150610a2f82610e87565b600082019050919050565b6000610a47601383610b45565b9150610a5282610e8a565b602082019050919050565b6000610a6a601483610b45565b9150610a7582610eb3565b602082019050919050565b610a8981610d34565b82525050565b6000610a9a82610a17565b9150819050919050565b6000602082019050610ab960008301846109e5565b92915050565b60006020820190508181036000830152610ad8816109f4565b9050919050565b60006020820190508181036000830152610af881610a3a565b9050919050565b60006020820190508181036000830152610b1881610a5d565b9050919050565b6000602082019050610b346000830184610a80565b92915050565b600081905092915050565b600082825260208201905092915050565b6000610b6182610d34565b9150610b6c83610d34565b925082610b7c57610b7b610dcc565b5b828204905092915050565b6000610b9282610d0a565b9150610b9d83610d0a565b9250827f7fffffffffffffffffffffffffffffffffffffffffffffffffffffffffffffff0482116000841360008413161615610bdc57610bdb610d9d565b5b817f80000000000000000000000000000000000000000000000000000000000000000583126000841260008413161615610c1957610c18610d9d565b5b827f80000000000000000000000000000000000000000000000000000000000000000582126000841360008412161615610c5657610c55610d9d565b5b827f7fffffffffffffffffffffffffffffffffffffffffffffffffffffffffffffff0582126000841260008412161615610c9357610c92610d9d565b5b828202905092915050565b6000610ca982610d34565b9150610cb483610d34565b9250817fffffffffffffffffffffffffffffffffffffffffffffffffffffffffffffffff0483118215151615610ced57610cec610d9d565b5b828202905092915050565b6000610d0382610d14565b9050919050565b6000819050919050565b600073ffffffffffffffffffffffffffffffffffffffff82169050919050565b6000819050919050565b600069ffffffffffffffffffff82169050919050565b6000610d5f82610d34565b91507fffffffffffffffffffffffffffffffffffffffffffffffffffffffffffffffff821415610d9257610d91610d9d565b5b600182019050919050565b7f4e487b7100000000000000000000000000000000000000000000000000000000600052601160045260246000fd5b7f4e487b7100000000000000000000000000000000000000000000000000000000600052601260045260246000fd5b7f4e487b7100000000000000000000000000000000000000000000000000000000600052603260045260246000fd5b7f4e487b7100000000000000000000000000000000000000000000000000000000600052604160045260246000fd5b600080fd5b7f63616c6c206661696c6564000000000000000000000000000000000000000000600082015250565b50565b7f4469646e27742073656e6420656e6f7567682100000000000000000000000000600082015250565b7f53656e646572206973206e6f74206f776e657221000000000000000000000000600082015250565b610ee581610cf8565b8114610ef057600080fd5b50565b610efc81610d0a565b8114610f0757600080fd5b50565b610f1381610d34565b8114610f1e57600080fd5b50565b610f2a81610d3e565b8114610f3557600080fd5b5056fea2646970667358221220e8ce295fb60f847e0daa937a12b4f59914116146430db943dc8ce571572bedf164736f6c63430008070033",
					"opcodes": "PUSH1 0x80 PUSH1 0x40 MSTORE PUSH9 0x2B5E3AF16B1880000 PUSH1 0x2 SSTORE CALLVALUE DUP1 ISZERO PUSH2 0x1D JUMPI PUSH1 0x0 DUP1 REVERT JUMPDEST POP CALLER PUSH1 0x3 PUSH1 0x0 PUSH2 0x100 EXP DUP2 SLOAD DUP2 PUSH20 0xFFFFFFFFFFFFFFFFFFFFFFFFFFFFFFFFFFFFFFFF MUL NOT AND SWAP1 DUP4 PUSH20 0xFFFFFFFFFFFFFFFFFFFFFFFFFFFFFFFFFFFFFFFF AND MUL OR SWAP1 SSTORE POP PUSH2 0xF6E DUP1 PUSH2 0x6E PUSH1 0x0 CODECOPY PUSH1 0x0 RETURN INVALID PUSH1 0x80 PUSH1 0x40 MSTORE PUSH1 0x4 CALLDATASIZE LT PUSH2 0x7B JUMPI PUSH1 0x0 CALLDATALOAD PUSH1 0xE0 SHR DUP1 PUSH4 0x8DA5CB5B GT PUSH2 0x4E JUMPI DUP1 PUSH4 0x8DA5CB5B EQ PUSH2 0x12A JUMPI DUP1 PUSH4 0x98D5FDCA EQ PUSH2 0x155 JUMPI DUP1 PUSH4 0xB60D4288 EQ PUSH2 0x180 JUMPI DUP1 PUSH4 0xDC0D3DFF EQ PUSH2 0x18A JUMPI PUSH2 0x7B JUMP JUMPDEST DUP1 PUSH4 0x98DE820 EQ PUSH2 0x80 JUMPI DUP1 PUSH4 0xD8E6E2C EQ PUSH2 0xAB JUMPI DUP1 PUSH4 0x3CCFD60B EQ PUSH2 0xD6 JUMPI DUP1 PUSH4 0x3E47D6F3 EQ PUSH2 0xED JUMPI JUMPDEST PUSH1 0x0 DUP1 REVERT JUMPDEST CALLVALUE DUP1 ISZERO PUSH2 0x8C JUMPI PUSH1 0x0 DUP1 REVERT JUMPDEST POP PUSH2 0x95 PUSH2 0x1C7 JUMP JUMPDEST PUSH1 0x40 MLOAD PUSH2 0xA2 SWAP2 SWAP1 PUSH2 0xB1F JUMP JUMPDEST PUSH1 0x40 MLOAD DUP1 SWAP2 SUB SWAP1 RETURN JUMPDEST CALLVALUE DUP1 ISZERO PUSH2 0xB7 JUMPI PUSH1 0x0 DUP1 REVERT JUMPDEST POP PUSH2 0xC0 PUSH2 0x1CD JUMP JUMPDEST PUSH1 0x40 MLOAD PUSH2 0xCD SWAP2 SWAP1 PUSH2 0xB1F JUMP JUMPDEST PUSH1 0x40 MLOAD DUP1 SWAP2 SUB SWAP1 RETURN JUMPDEST CALLVALUE DUP1 ISZERO PUSH2 0xE2 JUMPI PUSH1 0x0 DUP1 REVERT JUMPDEST POP PUSH2 0xEB PUSH2 0x26B JUMP JUMPDEST STOP JUMPDEST CALLVALUE DUP1 ISZERO PUSH2 0xF9 JUMPI PUSH1 0x0 DUP1 REVERT JUMPDEST POP PUSH2 0x114 PUSH1 0x4 DUP1 CALLDATASIZE SUB DUP2 ADD SWAP1 PUSH2 0x10F SWAP2 SWAP1 PUSH2 0x8E3 JUMP JUMPDEST PUSH2 0x4B6 JUMP JUMPDEST PUSH1 0x40 MLOAD PUSH2 0x121 SWAP2 SWAP1 PUSH2 0xB1F JUMP JUMPDEST PUSH1 0x40 MLOAD DUP1 SWAP2 SUB SWAP1 RETURN JUMPDEST CALLVALUE DUP1 ISZERO PUSH2 0x136 JUMPI PUSH1 0x0 DUP1 REVERT JUMPDEST POP PUSH2 0x13F PUSH2 0x4CE JUMP JUMPDEST PUSH1 0x40 MLOAD PUSH2 0x14C SWAP2 SWAP1 PUSH2 0xAA4 JUMP JUMPDEST PUSH1 0x40 MLOAD DUP1 SWAP2 SUB SWAP1 RETURN JUMPDEST CALLVALUE DUP1 ISZERO PUSH2 0x161 JUMPI PUSH1 0x0 DUP1 REVERT JUMPDEST POP PUSH2 0x16A PUSH2 0x4F4 JUMP JUMPDEST PUSH1 0x40 MLOAD PUSH2 0x177 SWAP2 SWAP1 PUSH2 0xB1F JUMP JUMPDEST PUSH1 0x40 MLOAD DUP1 SWAP2 SUB SWAP1 RETURN JUMPDEST PUSH2 0x188 PUSH2 0x5AC JUMP JUMPDEST STOP JUMPDEST CALLVALUE DUP1 ISZERO PUSH2 0x196 JUMPI PUSH1 0x0 DUP1 REVERT JUMPDEST POP PUSH2 0x1B1 PUSH1 0x4 DUP1 CALLDATASIZE SUB DUP2 ADD SWAP1 PUSH2 0x1AC SWAP2 SWAP1 PUSH2 0x910 JUMP JUMPDEST PUSH2 0x6A2 JUMP JUMPDEST PUSH1 0x40 MLOAD PUSH2 0x1BE SWAP2 SWAP1 PUSH2 0xAA4 JUMP JUMPDEST PUSH1 0x40 MLOAD DUP1 SWAP2 SUB SWAP1 RETURN JUMPDEST PUSH1 0x2 SLOAD DUP2 JUMP JUMPDEST PUSH1 0x0 DUP1 PUSH20 0x694AA1769357215DE4FAC081BF1F309ADC325306 SWAP1 POP DUP1 PUSH20 0xFFFFFFFFFFFFFFFFFFFFFFFFFFFFFFFFFFFFFFFF AND PUSH4 0x54FD4D50 PUSH1 0x40 MLOAD DUP2 PUSH4 0xFFFFFFFF AND PUSH1 0xE0 SHL DUP2 MSTORE PUSH1 0x4 ADD PUSH1 0x20 PUSH1 0x40 MLOAD DUP1 DUP4 SUB DUP2 DUP7 DUP1 EXTCODESIZE ISZERO DUP1 ISZERO PUSH2 0x22D JUMPI PUSH1 0x0 DUP1 REVERT JUMPDEST POP GAS STATICCALL ISZERO DUP1 ISZERO PUSH2 0x241 JUMPI RETURNDATASIZE PUSH1 0x0 DUP1 RETURNDATACOPY RETURNDATASIZE PUSH1 0x0 REVERT JUMPDEST POP POP POP POP PUSH1 0x40 MLOAD RETURNDATASIZE PUSH1 0x1F NOT PUSH1 0x1F DUP3 ADD AND DUP3 ADD DUP1 PUSH1 0x40 MSTORE POP DUP2 ADD SWAP1 PUSH2 0x265 SWAP2 SWAP1 PUSH2 0x93D JUMP JUMPDEST SWAP2 POP POP SWAP1 JUMP JUMPDEST PUSH1 0x3 PUSH1 0x0 SWAP1 SLOAD SWAP1 PUSH2 0x100 EXP SWAP1 DIV PUSH20 0xFFFFFFFFFFFFFFFFFFFFFFFFFFFFFFFFFFFFFFFF AND PUSH20 0xFFFFFFFFFFFFFFFFFFFFFFFFFFFFFFFFFFFFFFFF AND CALLER PUSH20 0xFFFFFFFFFFFFFFFFFFFFFFFFFFFFFFFFFFFFFFFF AND EQ PUSH2 0x2FB JUMPI PUSH1 0x40 MLOAD PUSH32 0x8C379A000000000000000000000000000000000000000000000000000000000 DUP2 MSTORE PUSH1 0x4 ADD PUSH2 0x2F2 SWAP1 PUSH2 0xAFF JUMP JUMPDEST PUSH1 0x40 MLOAD DUP1 SWAP2 SUB SWAP1 REVERT JUMPDEST PUSH1 0x0 JUMPDEST PUSH1 0x0 DUP1 SLOAD SWAP1 POP DUP2 LT ISZERO PUSH2 0x3A6 JUMPI PUSH1 0x0 DUP1 DUP3 DUP2 SLOAD DUP2 LT PUSH2 0x320 JUMPI PUSH2 0x31F PUSH2 0xDFB JUMP JUMPDEST JUMPDEST SWAP1 PUSH1 0x0 MSTORE PUSH1 0x20 PUSH1 0x0 KECCAK256 ADD PUSH1 0x0 SWAP1 SLOAD SWAP1 PUSH2 0x100 EXP SWAP1 DIV PUSH20 0xFFFFFFFFFFFFFFFFFFFFFFFFFFFFFFFFFFFFFFFF AND SWAP1 POP PUSH1 0x0 PUSH1 0x1 PUSH1 0x0 DUP4 PUSH20 0xFFFFFFFFFFFFFFFFFFFFFFFFFFFFFFFFFFFFFFFF AND PUSH20 0xFFFFFFFFFFFFFFFFFFFFFFFFFFFFFFFFFFFFFFFF AND DUP2 MSTORE PUSH1 0x20 ADD SWAP1 DUP2 MSTORE PUSH1 0x20 ADD PUSH1 0x0 KECCAK256 DUP2 SWAP1 SSTORE POP POP DUP1 DUP1 PUSH2 0x39E SWAP1 PUSH2 0xD54 JUMP JUMPDEST SWAP2 POP POP PUSH2 0x2FE JUMP JUMPDEST POP PUSH1 0x0 PUSH8 0xFFFFFFFFFFFFFFFF DUP2 GT ISZERO PUSH2 0x3C2 JUMPI PUSH2 0x3C1 PUSH2 0xE2A JUMP JUMPDEST JUMPDEST PUSH1 0x40 MLOAD SWAP1 DUP1 DUP3 MSTORE DUP1 PUSH1 0x20 MUL PUSH1 0x20 ADD DUP3 ADD PUSH1 0x40 MSTORE DUP1 ISZERO PUSH2 0x3F0 JUMPI DUP2 PUSH1 0x20 ADD PUSH1 0x20 DUP3 MUL DUP1 CALLDATASIZE DUP4 CALLDATACOPY DUP1 DUP3 ADD SWAP2 POP POP SWAP1 POP JUMPDEST POP PUSH1 0x0 SWAP1 DUP1 MLOAD SWAP1 PUSH1 0x20 ADD SWAP1 PUSH2 0x406 SWAP3 SWAP2 SWAP1 PUSH2 0x7D3 JUMP JUMPDEST POP PUSH1 0x0 CALLER PUSH20 0xFFFFFFFFFFFFFFFFFFFFFFFFFFFFFFFFFFFFFFFF AND SELFBALANCE PUSH1 0x40 MLOAD PUSH2 0x42D SWAP1 PUSH2 0xA8F JUMP JUMPDEST PUSH1 0x0 PUSH1 0x40 MLOAD DUP1 DUP4 SUB DUP2 DUP6 DUP8 GAS CALL SWAP3 POP POP POP RETURNDATASIZE DUP1 PUSH1 0x0 DUP2 EQ PUSH2 0x46A JUMPI PUSH1 0x40 MLOAD SWAP2 POP PUSH1 0x1F NOT PUSH1 0x3F RETURNDATASIZE ADD AND DUP3 ADD PUSH1 0x40 MSTORE RETURNDATASIZE DUP3 MSTORE RETURNDATASIZE PUSH1 0x0 PUSH1 0x20 DUP5 ADD RETURNDATACOPY PUSH2 0x46F JUMP JUMPDEST PUSH1 0x60 SWAP2 POP JUMPDEST POP POP SWAP1 POP DUP1 PUSH2 0x4B3 JUMPI PUSH1 0x40 MLOAD PUSH32 0x8C379A000000000000000000000000000000000000000000000000000000000 DUP2 MSTORE PUSH1 0x4 ADD PUSH2 0x4AA SWAP1 PUSH2 0xABF JUMP JUMPDEST PUSH1 0x40 MLOAD DUP1 SWAP2 SUB SWAP1 REVERT JUMPDEST POP JUMP JUMPDEST PUSH1 0x1 PUSH1 0x20 MSTORE DUP1 PUSH1 0x0 MSTORE PUSH1 0x40 PUSH1 0x0 KECCAK256 PUSH1 0x0 SWAP2 POP SWAP1 POP SLOAD DUP2 JUMP JUMPDEST PUSH1 0x3 PUSH1 0x0 SWAP1 SLOAD SWAP1 PUSH2 0x100 EXP SWAP1 DIV PUSH20 0xFFFFFFFFFFFFFFFFFFFFFFFFFFFFFFFFFFFFFFFF AND DUP2 JUMP JUMPDEST PUSH1 0x0 DUP1 PUSH20 0x694AA1769357215DE4FAC081BF1F309ADC325306 SWAP1 POP PUSH1 0x0 DUP2 PUSH20 0xFFFFFFFFFFFFFFFFFFFFFFFFFFFFFFFFFFFFFFFF AND PUSH4 0xFEAF968C PUSH1 0x40 MLOAD DUP2 PUSH4 0xFFFFFFFF AND PUSH1 0xE0 SHL DUP2 MSTORE PUSH1 0x4 ADD PUSH1 0xA0 PUSH1 0x40 MLOAD DUP1 DUP4 SUB DUP2 DUP7 DUP1 EXTCODESIZE ISZERO DUP1 ISZERO PUSH2 0x556 JUMPI PUSH1 0x0 DUP1 REVERT JUMPDEST POP GAS STATICCALL ISZERO DUP1 ISZERO PUSH2 0x56A JUMPI RETURNDATASIZE PUSH1 0x0 DUP1 RETURNDATACOPY RETURNDATASIZE PUSH1 0x0 REVERT JUMPDEST POP POP POP POP PUSH1 0x40 MLOAD RETURNDATASIZE PUSH1 0x1F NOT PUSH1 0x1F DUP3 ADD AND DUP3 ADD DUP1 PUSH1 0x40 MSTORE POP DUP2 ADD SWAP1 PUSH2 0x58E SWAP2 SWAP1 PUSH2 0x96A JUMP JUMPDEST POP POP POP SWAP2 POP POP PUSH5 0x2540BE400 DUP2 PUSH2 0x5A5 SWAP2 SWAP1 PUSH2 0xB87 JUMP JUMPDEST SWAP3 POP POP POP SWAP1 JUMP JUMPDEST PUSH1 0x2 SLOAD PUSH2 0x5B8 CALLVALUE PUSH2 0x6E1 JUMP JUMPDEST LT ISZERO PUSH2 0x5F9 JUMPI PUSH1 0x40 MLOAD PUSH32 0x8C379A000000000000000000000000000000000000000000000000000000000 DUP2 MSTORE PUSH1 0x4 ADD PUSH2 0x5F0 SWAP1 PUSH2 0xADF JUMP JUMPDEST PUSH1 0x40 MLOAD DUP1 SWAP2 SUB SWAP1 REVERT JUMPDEST PUSH1 0x0 CALLER SWAP1 DUP1 PUSH1 0x1 DUP2 SLOAD ADD DUP1 DUP3 SSTORE DUP1 SWAP2 POP POP PUSH1 0x1 SWAP1 SUB SWAP1 PUSH1 0x0 MSTORE PUSH1 0x20 PUSH1 0x0 KECCAK256 ADD PUSH1 0x0 SWAP1 SWAP2 SWAP1 SWAP2 SWAP1 SWAP2 PUSH2 0x100 EXP DUP2 SLOAD DUP2 PUSH20 0xFFFFFFFFFFFFFFFFFFFFFFFFFFFFFFFFFFFFFFFF MUL NOT AND SWAP1 DUP4 PUSH20 0xFFFFFFFFFFFFFFFFFFFFFFFFFFFFFFFFFFFFFFFF AND MUL OR SWAP1 SSTORE POP CALLVALUE PUSH1 0x1 PUSH1 0x0 CALLER PUSH20 0xFFFFFFFFFFFFFFFFFFFFFFFFFFFFFFFFFFFFFFFF AND PUSH20 0xFFFFFFFFFFFFFFFFFFFFFFFFFFFFFFFFFFFFFFFF AND DUP2 MSTORE PUSH1 0x20 ADD SWAP1 DUP2 MSTORE PUSH1 0x20 ADD PUSH1 0x0 KECCAK256 DUP2 SWAP1 SSTORE POP JUMP JUMPDEST PUSH1 0x0 DUP2 DUP2 SLOAD DUP2 LT PUSH2 0x6B2 JUMPI PUSH1 0x0 DUP1 REVERT JUMPDEST SWAP1 PUSH1 0x0 MSTORE PUSH1 0x20 PUSH1 0x0 KECCAK256 ADD PUSH1 0x0 SWAP2 POP SLOAD SWAP1 PUSH2 0x100 EXP SWAP1 DIV PUSH20 0xFFFFFFFFFFFFFFFFFFFFFFFFFFFFFFFFFFFFFFFF AND DUP2 JUMP JUMPDEST PUSH1 0x0 DUP1 PUSH2 0x6EC PUSH2 0x71B JUMP JUMPDEST SWAP1 POP PUSH1 0x0 PUSH8 0xDE0B6B3A7640000 DUP5 DUP4 PUSH2 0x705 SWAP2 SWAP1 PUSH2 0xC9E JUMP JUMPDEST PUSH2 0x70F SWAP2 SWAP1 PUSH2 0xB56 JUMP JUMPDEST SWAP1 POP DUP1 SWAP3 POP POP POP SWAP2 SWAP1 POP JUMP JUMPDEST PUSH1 0x0 DUP1 PUSH20 0x694AA1769357215DE4FAC081BF1F309ADC325306 SWAP1 POP PUSH1 0x0 DUP2 PUSH20 0xFFFFFFFFFFFFFFFFFFFFFFFFFFFFFFFFFFFFFFFF AND PUSH4 0xFEAF968C PUSH1 0x40 MLOAD DUP2 PUSH4 0xFFFFFFFF AND PUSH1 0xE0 SHL DUP2 MSTORE PUSH1 0x4 ADD PUSH1 0xA0 PUSH1 0x40 MLOAD DUP1 DUP4 SUB DUP2 DUP7 DUP1 EXTCODESIZE ISZERO DUP1 ISZERO PUSH2 0x77D JUMPI PUSH1 0x0 DUP1 REVERT JUMPDEST POP GAS STATICCALL ISZERO DUP1 ISZERO PUSH2 0x791 JUMPI RETURNDATASIZE PUSH1 0x0 DUP1 RETURNDATACOPY RETURNDATASIZE PUSH1 0x0 REVERT JUMPDEST POP POP POP POP PUSH1 0x40 MLOAD RETURNDATASIZE PUSH1 0x1F NOT PUSH1 0x1F DUP3 ADD AND DUP3 ADD DUP1 PUSH1 0x40 MSTORE POP DUP2 ADD SWAP1 PUSH2 0x7B5 SWAP2 SWAP1 PUSH2 0x96A JUMP JUMPDEST POP POP POP SWAP2 POP POP PUSH5 0x2540BE400 DUP2 PUSH2 0x7CC SWAP2 SWAP1 PUSH2 0xB87 JUMP JUMPDEST SWAP3 POP POP POP SWAP1 JUMP JUMPDEST DUP3 DUP1 SLOAD DUP3 DUP3 SSTORE SWAP1 PUSH1 0x0 MSTORE PUSH1 0x20 PUSH1 0x0 KECCAK256 SWAP1 DUP2 ADD SWAP3 DUP3 ISZERO PUSH2 0x84C JUMPI SWAP2 PUSH1 0x20 MUL DUP3 ADD JUMPDEST DUP3 DUP2 GT ISZERO PUSH2 0x84B JUMPI DUP3 MLOAD DUP3 PUSH1 0x0 PUSH2 0x100 EXP DUP2 SLOAD DUP2 PUSH20 0xFFFFFFFFFFFFFFFFFFFFFFFFFFFFFFFFFFFFFFFF MUL NOT AND SWAP1 DUP4 PUSH20 0xFFFFFFFFFFFFFFFFFFFFFFFFFFFFFFFFFFFFFFFF AND MUL OR SWAP1 SSTORE POP SWAP2 PUSH1 0x20 ADD SWAP2 SWAP1 PUSH1 0x1 ADD SWAP1 PUSH2 0x7F3 JUMP JUMPDEST JUMPDEST POP SWAP1 POP PUSH2 0x859 SWAP2 SWAP1 PUSH2 0x85D JUMP JUMPDEST POP SWAP1 JUMP JUMPDEST JUMPDEST DUP1 DUP3 GT ISZERO PUSH2 0x876 JUMPI PUSH1 0x0 DUP2 PUSH1 0x0 SWAP1 SSTORE POP PUSH1 0x1 ADD PUSH2 0x85E JUMP JUMPDEST POP SWAP1 JUMP JUMPDEST PUSH1 0x0 DUP2 CALLDATALOAD SWAP1 POP PUSH2 0x889 DUP2 PUSH2 0xEDC JUMP JUMPDEST SWAP3 SWAP2 POP POP JUMP JUMPDEST PUSH1 0x0 DUP2 MLOAD SWAP1 POP PUSH2 0x89E DUP2 PUSH2 0xEF3 JUMP JUMPDEST SWAP3 SWAP2 POP POP JUMP JUMPDEST PUSH1 0x0 DUP2 CALLDATALOAD SWAP1 POP PUSH2 0x8B3 DUP2 PUSH2 0xF0A JUMP JUMPDEST SWAP3 SWAP2 POP POP JUMP JUMPDEST PUSH1 0x0 DUP2 MLOAD SWAP1 POP PUSH2 0x8C8 DUP2 PUSH2 0xF0A JUMP JUMPDEST SWAP3 SWAP2 POP POP JUMP JUMPDEST PUSH1 0x0 DUP2 MLOAD SWAP1 POP PUSH2 0x8DD DUP2 PUSH2 0xF21 JUMP JUMPDEST SWAP3 SWAP2 POP POP JUMP JUMPDEST PUSH1 0x0 PUSH1 0x20 DUP3 DUP5 SUB SLT ISZERO PUSH2 0x8F9 JUMPI PUSH2 0x8F8 PUSH2 0xE59 JUMP JUMPDEST JUMPDEST PUSH1 0x0 PUSH2 0x907 DUP5 DUP3 DUP6 ADD PUSH2 0x87A JUMP JUMPDEST SWAP2 POP POP SWAP3 SWAP2 POP POP JUMP JUMPDEST PUSH1 0x0 PUSH1 0x20 DUP3 DUP5 SUB SLT ISZERO PUSH2 0x926 JUMPI PUSH2 0x925 PUSH2 0xE59 JUMP JUMPDEST JUMPDEST PUSH1 0x0 PUSH2 0x934 DUP5 DUP3 DUP6 ADD PUSH2 0x8A4 JUMP JUMPDEST SWAP2 POP POP SWAP3 SWAP2 POP POP JUMP JUMPDEST PUSH1 0x0 PUSH1 0x20 DUP3 DUP5 SUB SLT ISZERO PUSH2 0x953 JUMPI PUSH2 0x952 PUSH2 0xE59 JUMP JUMPDEST JUMPDEST PUSH1 0x0 PUSH2 0x961 DUP5 DUP3 DUP6 ADD PUSH2 0x8B9 JUMP JUMPDEST SWAP2 POP POP SWAP3 SWAP2 POP POP JUMP JUMPDEST PUSH1 0x0 DUP1 PUSH1 0x0 DUP1 PUSH1 0x0 PUSH1 0xA0 DUP7 DUP9 SUB SLT ISZERO PUSH2 0x986 JUMPI PUSH2 0x985 PUSH2 0xE59 JUMP JUMPDEST JUMPDEST PUSH1 0x0 PUSH2 0x994 DUP9 DUP3 DUP10 ADD PUSH2 0x8CE JUMP JUMPDEST SWAP6 POP POP PUSH1 0x20 PUSH2 0x9A5 DUP9 DUP3 DUP10 ADD PUSH2 0x88F JUMP JUMPDEST SWAP5 POP POP PUSH1 0x40 PUSH2 0x9B6 DUP9 DUP3 DUP10 ADD PUSH2 0x8B9 JUMP JUMPDEST SWAP4 POP POP PUSH1 0x60 PUSH2 0x9C7 DUP9 DUP3 DUP10 ADD PUSH2 0x8B9 JUMP JUMPDEST SWAP3 POP POP PUSH1 0x80 PUSH2 0x9D8 DUP9 DUP3 DUP10 ADD PUSH2 0x8CE JUMP JUMPDEST SWAP2 POP POP SWAP3 SWAP6 POP SWAP3 SWAP6 SWAP1 SWAP4 POP JUMP JUMPDEST PUSH2 0x9EE DUP2 PUSH2 0xCF8 JUMP JUMPDEST DUP3 MSTORE POP POP JUMP JUMPDEST PUSH1 0x0 PUSH2 0xA01 PUSH1 0xB DUP4 PUSH2 0xB45 JUMP JUMPDEST SWAP2 POP PUSH2 0xA0C DUP3 PUSH2 0xE5E JUMP JUMPDEST PUSH1 0x20 DUP3 ADD SWAP1 POP SWAP2 SWAP1 POP JUMP JUMPDEST PUSH1 0x0 PUSH2 0xA24 PUSH1 0x0 DUP4 PUSH2 0xB3A JUMP JUMPDEST SWAP2 POP PUSH2 0xA2F DUP3 PUSH2 0xE87 JUMP JUMPDEST PUSH1 0x0 DUP3 ADD SWAP1 POP SWAP2 SWAP1 POP JUMP JUMPDEST PUSH1 0x0 PUSH2 0xA47 PUSH1 0x13 DUP4 PUSH2 0xB45 JUMP JUMPDEST SWAP2 POP PUSH2 0xA52 DUP3 PUSH2 0xE8A JUMP JUMPDEST PUSH1 0x20 DUP3 ADD SWAP1 POP SWAP2 SWAP1 POP JUMP JUMPDEST PUSH1 0x0 PUSH2 0xA6A PUSH1 0x14 DUP4 PUSH2 0xB45 JUMP JUMPDEST SWAP2 POP PUSH2 0xA75 DUP3 PUSH2 0xEB3 JUMP JUMPDEST PUSH1 0x20 DUP3 ADD SWAP1 POP SWAP2 SWAP1 POP JUMP JUMPDEST PUSH2 0xA89 DUP2 PUSH2 0xD34 JUMP JUMPDEST DUP3 MSTORE POP POP JUMP JUMPDEST PUSH1 0x0 PUSH2 0xA9A DUP3 PUSH2 0xA17 JUMP JUMPDEST SWAP2 POP DUP2 SWAP1 POP SWAP2 SWAP1 POP JUMP JUMPDEST PUSH1 0x0 PUSH1 0x20 DUP3 ADD SWAP1 POP PUSH2 0xAB9 PUSH1 0x0 DUP4 ADD DUP5 PUSH2 0x9E5 JUMP JUMPDEST SWAP3 SWAP2 POP POP JUMP JUMPDEST PUSH1 0x0 PUSH1 0x20 DUP3 ADD SWAP1 POP DUP2 DUP2 SUB PUSH1 0x0 DUP4 ADD MSTORE PUSH2 0xAD8 DUP2 PUSH2 0x9F4 JUMP JUMPDEST SWAP1 POP SWAP2 SWAP1 POP JUMP JUMPDEST PUSH1 0x0 PUSH1 0x20 DUP3 ADD SWAP1 POP DUP2 DUP2 SUB PUSH1 0x0 DUP4 ADD MSTORE PUSH2 0xAF8 DUP2 PUSH2 0xA3A JUMP JUMPDEST SWAP1 POP SWAP2 SWAP1 POP JUMP JUMPDEST PUSH1 0x0 PUSH1 0x20 DUP3 ADD SWAP1 POP DUP2 DUP2 SUB PUSH1 0x0 DUP4 ADD MSTORE PUSH2 0xB18 DUP2 PUSH2 0xA5D JUMP JUMPDEST SWAP1 POP SWAP2 SWAP1 POP JUMP JUMPDEST PUSH1 0x0 PUSH1 0x20 DUP3 ADD SWAP1 POP PUSH2 0xB34 PUSH1 0x0 DUP4 ADD DUP5 PUSH2 0xA80 JUMP JUMPDEST SWAP3 SWAP2 POP POP JUMP JUMPDEST PUSH1 0x0 DUP2 SWAP1 POP SWAP3 SWAP2 POP POP JUMP JUMPDEST PUSH1 0x0 DUP3 DUP3 MSTORE PUSH1 0x20 DUP3 ADD SWAP1 POP SWAP3 SWAP2 POP POP JUMP JUMPDEST PUSH1 0x0 PUSH2 0xB61 DUP3 PUSH2 0xD34 JUMP JUMPDEST SWAP2 POP PUSH2 0xB6C DUP4 PUSH2 0xD34 JUMP JUMPDEST SWAP3 POP DUP3 PUSH2 0xB7C JUMPI PUSH2 0xB7B PUSH2 0xDCC JUMP JUMPDEST JUMPDEST DUP3 DUP3 DIV SWAP1 POP SWAP3 SWAP2 POP POP JUMP JUMPDEST PUSH1 0x0 PUSH2 0xB92 DUP3 PUSH2 0xD0A JUMP JUMPDEST SWAP2 POP PUSH2 0xB9D DUP4 PUSH2 0xD0A JUMP JUMPDEST SWAP3 POP DUP3 PUSH32 0x7FFFFFFFFFFFFFFFFFFFFFFFFFFFFFFFFFFFFFFFFFFFFFFFFFFFFFFFFFFFFFFF DIV DUP3 GT PUSH1 0x0 DUP5 SGT PUSH1 0x0 DUP5 SGT AND AND ISZERO PUSH2 0xBDC JUMPI PUSH2 0xBDB PUSH2 0xD9D JUMP JUMPDEST JUMPDEST DUP2 PUSH32 0x8000000000000000000000000000000000000000000000000000000000000000 SDIV DUP4 SLT PUSH1 0x0 DUP5 SLT PUSH1 0x0 DUP5 SGT AND AND ISZERO PUSH2 0xC19 JUMPI PUSH2 0xC18 PUSH2 0xD9D JUMP JUMPDEST JUMPDEST DUP3 PUSH32 0x8000000000000000000000000000000000000000000000000000000000000000 SDIV DUP3 SLT PUSH1 0x0 DUP5 SGT PUSH1 0x0 DUP5 SLT AND AND ISZERO PUSH2 0xC56 JUMPI PUSH2 0xC55 PUSH2 0xD9D JUMP JUMPDEST JUMPDEST DUP3 PUSH32 0x7FFFFFFFFFFFFFFFFFFFFFFFFFFFFFFFFFFFFFFFFFFFFFFFFFFFFFFFFFFFFFFF SDIV DUP3 SLT PUSH1 0x0 DUP5 SLT PUSH1 0x0 DUP5 SLT AND AND ISZERO PUSH2 0xC93 JUMPI PUSH2 0xC92 PUSH2 0xD9D JUMP JUMPDEST JUMPDEST DUP3 DUP3 MUL SWAP1 POP SWAP3 SWAP2 POP POP JUMP JUMPDEST PUSH1 0x0 PUSH2 0xCA9 DUP3 PUSH2 0xD34 JUMP JUMPDEST SWAP2 POP PUSH2 0xCB4 DUP4 PUSH2 0xD34 JUMP JUMPDEST SWAP3 POP DUP2 PUSH32 0xFFFFFFFFFFFFFFFFFFFFFFFFFFFFFFFFFFFFFFFFFFFFFFFFFFFFFFFFFFFFFFFF DIV DUP4 GT DUP3 ISZERO ISZERO AND ISZERO PUSH2 0xCED JUMPI PUSH2 0xCEC PUSH2 0xD9D JUMP JUMPDEST JUMPDEST DUP3 DUP3 MUL SWAP1 POP SWAP3 SWAP2 POP POP JUMP JUMPDEST PUSH1 0x0 PUSH2 0xD03 DUP3 PUSH2 0xD14 JUMP JUMPDEST SWAP1 POP SWAP2 SWAP1 POP JUMP JUMPDEST PUSH1 0x0 DUP2 SWAP1 POP SWAP2 SWAP1 POP JUMP JUMPDEST PUSH1 0x0 PUSH20 0xFFFFFFFFFFFFFFFFFFFFFFFFFFFFFFFFFFFFFFFF DUP3 AND SWAP1 POP SWAP2 SWAP1 POP JUMP JUMPDEST PUSH1 0x0 DUP2 SWAP1 POP SWAP2 SWAP1 POP JUMP JUMPDEST PUSH1 0x0 PUSH10 0xFFFFFFFFFFFFFFFFFFFF DUP3 AND SWAP1 POP SWAP2 SWAP1 POP JUMP JUMPDEST PUSH1 0x0 PUSH2 0xD5F DUP3 PUSH2 0xD34 JUMP JUMPDEST SWAP2 POP PUSH32 0xFFFFFFFFFFFFFFFFFFFFFFFFFFFFFFFFFFFFFFFFFFFFFFFFFFFFFFFFFFFFFFFF DUP3 EQ ISZERO PUSH2 0xD92 JUMPI PUSH2 0xD91 PUSH2 0xD9D JUMP JUMPDEST JUMPDEST PUSH1 0x1 DUP3 ADD SWAP1 POP SWAP2 SWAP1 POP JUMP JUMPDEST PUSH32 0x4E487B7100000000000000000000000000000000000000000000000000000000 PUSH1 0x0 MSTORE PUSH1 0x11 PUSH1 0x4 MSTORE PUSH1 0x24 PUSH1 0x0 REVERT JUMPDEST PUSH32 0x4E487B7100000000000000000000000000000000000000000000000000000000 PUSH1 0x0 MSTORE PUSH1 0x12 PUSH1 0x4 MSTORE PUSH1 0x24 PUSH1 0x0 REVERT JUMPDEST PUSH32 0x4E487B7100000000000000000000000000000000000000000000000000000000 PUSH1 0x0 MSTORE PUSH1 0x32 PUSH1 0x4 MSTORE PUSH1 0x24 PUSH1 0x0 REVERT JUMPDEST PUSH32 0x4E487B7100000000000000000000000000000000000000000000000000000000 PUSH1 0x0 MSTORE PUSH1 0x41 PUSH1 0x4 MSTORE PUSH1 0x24 PUSH1 0x0 REVERT JUMPDEST PUSH1 0x0 DUP1 REVERT JUMPDEST PUSH32 0x63616C6C206661696C6564000000000000000000000000000000000000000000 PUSH1 0x0 DUP3 ADD MSTORE POP JUMP JUMPDEST POP JUMP JUMPDEST PUSH32 0x4469646E27742073656E6420656E6F7567682100000000000000000000000000 PUSH1 0x0 DUP3 ADD MSTORE POP JUMP JUMPDEST PUSH32 0x53656E646572206973206E6F74206F776E657221000000000000000000000000 PUSH1 0x0 DUP3 ADD MSTORE POP JUMP JUMPDEST PUSH2 0xEE5 DUP2 PUSH2 0xCF8 JUMP JUMPDEST DUP2 EQ PUSH2 0xEF0 JUMPI PUSH1 0x0 DUP1 REVERT JUMPDEST POP JUMP JUMPDEST PUSH2 0xEFC DUP2 PUSH2 0xD0A JUMP JUMPDEST DUP2 EQ PUSH2 0xF07 JUMPI PUSH1 0x0 DUP1 REVERT JUMPDEST POP JUMP JUMPDEST PUSH2 0xF13 DUP2 PUSH2 0xD34 JUMP JUMPDEST DUP2 EQ PUSH2 0xF1E JUMPI PUSH1 0x0 DUP1 REVERT JUMPDEST POP JUMP JUMPDEST PUSH2 0xF2A DUP2 PUSH2 0xD3E JUMP JUMPDEST DUP2 EQ PUSH2 0xF35 JUMPI PUSH1 0x0 DUP1 REVERT JUMPDEST POP JUMP INVALID LOG2 PUSH5 0x6970667358 0x22 SLT KECCAK256 0xE8 0xCE 0x29 0x5F 0xB6 0xF DUP5 PUSH31 0xDAA937A12B4F59914116146430DB943DC8CE571572BEDF164736F6C634300 ADDMOD SMOD STOP CALLER "
				},
				"gasEstimates": {
					"creation": {
						"codeDepositCost": "790000",
						"executionCost": "47197",
						"totalCost": "837197"
					},
					"external": {
						"addressToAmountFunded(address)": "2881",
						"fund()": "infinite",
						"funders(uint256)": "5022",
						"getPrice()": "infinite",
						"getVersion()": "infinite",
						"minimumUsd()": "2430",
						"owner()": "2514",
						"withdraw()": "infinite"
					}
				},
				"methodIdentifiers": {
					"addressToAmountFunded(address)": "3e47d6f3",
					"fund()": "b60d4288",
					"funders(uint256)": "dc0d3dff",
					"getPrice()": "98d5fdca",
					"getVersion()": "0d8e6e2c",
					"minimumUsd()": "098de820",
					"owner()": "8da5cb5b",
					"withdraw()": "3ccfd60b"
				}
			},
			"storageLayout": {
				"storage": [
					{
						"astId": 55,
						"contract": "contracts/FundMe.sol:FundMe",
						"label": "funders",
						"offset": 0,
						"slot": "0",
						"type": "t_array(t_address)dyn_storage"
					},
					{
						"astId": 59,
						"contract": "contracts/FundMe.sol:FundMe",
						"label": "addressToAmountFunded",
						"offset": 0,
						"slot": "1",
						"type": "t_mapping(t_address,t_uint256)"
					},
					{
						"astId": 64,
						"contract": "contracts/FundMe.sol:FundMe",
						"label": "minimumUsd",
						"offset": 0,
						"slot": "2",
						"type": "t_uint256"
					},
					{
						"astId": 66,
						"contract": "contracts/FundMe.sol:FundMe",
						"label": "owner",
						"offset": 0,
						"slot": "3",
						"type": "t_address"
					}
				],
				"types": {
					"t_address": {
						"encoding": "inplace",
						"label": "address",
						"numberOfBytes": "20"
					},
					"t_array(t_address)dyn_storage": {
						"base": "t_address",
						"encoding": "dynamic_array",
						"label": "address[]",
						"numberOfBytes": "32"
					},
					"t_mapping(t_address,t_uint256)": {
						"encoding": "mapping",
						"key": "t_address",
						"label": "mapping(address => uint256)",
						"numberOfBytes": "32",
						"value": "t_uint256"
					},
					"t_uint256": {
						"encoding": "inplace",
						"label": "uint256",
						"numberOfBytes": "32"
					}
				}
			},
			"userdoc": {
				"kind": "user",
				"methods": {},
				"version": 1
			}
		}
	}
}